:03000000020BB43C
:0C0BB400787FE4F6D8FD758121020BFB70
:1012DC00D3EF9400EE9400401600000075080B75D7
:0F12EC0009BED509FDD508FAEF1F70E41E80E199
:0112FB0022D0
:1014AE00D3EF9400EE9400400A000000EF1F70F09E
:0414BE001E80ED227D
:1012FC0075941AE4F593F592F591F596F59575B20A
:0C130C00FEF5B1F5B4F5B3F5CAF5C92241
:101318003D3D3D3D3D3D20636F64652073746172C2
:0C13280074203D3D3D3D3D3D200D0A0080
:100E8D0043BA801212FC1214661214D51214981261
:100E9D00147F1214C21214E5D2AF1211EE7F02129A
:100EAD00126E7FE87E03800D900142E0700C1208F7
:100EBD00187F0A7E001212DC80EE12144C90013E57
:100ECD00E0700F120DA91200267F327E001212DC87
:100EDD0080EB7BFF7A137918120109120026120894
:090EED00181211BF12000E80F270
:1014C200438E805389F0758ACD758CD4C28DD28CAF
:0314D200D2A9227A
:1014D50053D1FDE4F5D575D4DC43D10843AF2022C3
:1014660053A23F759850438E01438E0475D7E87595
:09147600D6FF438E1075A8102268
:1014980075841043844043D12075D3E875D2FF4347
:0614A800D18043AF1022C9
:040F5E004101060047
:10147F00E4900000F0900081F0900101F0F0A3F0F3
:09148F00A3F0A3F0A3F0C2842233
:03009300020C401C
:100C4000C0E0C083C082C0D075D000C007E584304A
:100C5000E12A5384FD900101E0601AA3E0FF04F053
:100C600074012FF582E43400F583E0F585900101ED
:100C7000E014F08007900102E4F0C284E58430E0E3
:100C8000335384FE900000E07021900105E0D3947E
:100C9000804002E4F0900105E02481F582E4340014
:100CA000F583E585F0900105E004F0900103E4F0A0
:0F0CB000A37405F0D007D0D0D082D083D0E0322B
:03000B000210469A
:10104600C0E0C083C082C0D0900103E07002A3E07C
:101056006024900104E024FFF0900103E034FFF0E7
:10106600E07002A3E0700F900105E0D39400400603
:0F1076009000007401F0D0D0D082D083D0E0324F
:0300230002133491
:10133400C0E0C083C082309907C299900106E4F0EE
:0C134400309802C298D082D083D0E032F2
:0B14F3008F99900106E070FA04F022CF
:100F6200410143004101440041014500410150005B
:100F720041015100410152004101530047012FC379
:100F8200C6C7CACBCECF4A0146F505D39727B6F6D8
:030F920015F7B799
:10144C00D285D286D287E4FF12121AD2857F44123B
:0A145C00121AD285120FBD02000320
:1011EE0090013A7407F09001367432F0A37403F054
:1011FE00E4A3F0A304F090013FF0E490013EF090E0
:0C120E00014104F0E4A3F0900176F0220E
:10126E00EF24FE601204701DC281C2B7C2B6C2B5B1
:10127E00C2B4C2B3C2B222D281C2B2D2B7D2B6D235
:06128E00B5D2B4D2B32278
:100FBD00E4FF1213A4E4FF1213DCE4FF1213C0E4E8
:100FCD00FF12136C1211449001321211479001312E
:100FDD00121147900130121147E4FF121350E4FF34
:100FED001208F0E4FF121414E4FF121430E4FF129F
:070FFD0013F8E4FF020D36BA
:080003007F9312121AD285222C
:10112A00900144E0FF90010BE02446F582E434018B
:10113A00F583E0FEEF4E900144F0900133E0FFE4C6
:01114A00FDA7
:10114B0090010CEDF012121A90010CE0FF12121A22
:03115B00D2852218
:05121A0090010DEFF052
:10121F007F327E001214AEC285E4FFC28690010DAC
:10122F00E0FE139287D286EEC313F00FEFB408EBF4
:07123F007F327E000214AEB5
:0506E900900108EFF094
:1006EE00E0FF75F06484A3F0EF75F00A8475F00AEC
:1006FE0084A3E5F0F0900108E0FD75F00A84900106
:10070E000BE5F0F0900151E05470F0900150E4F0E0
:10071E00900145E4F0900144E05408F0EDC3940AD2
:10072E00501B900108E0C39400401212112A900150
:10073E0032121147900131E0FFE4020806900108E1
:10074E00E0FFC394645034EFC3940A402E900145E9
:10075E00E0FF90010AE02446F582E43401F583E0DF
:10076E00FEEF4E900145F012112A90013212114700
:10077E00900131E0FF900145E0807D900151E0FF56
:10078E00900109E02446F582E43401F583E0FEC4CD
:10079E00540FFDEF4D900151F0FD900150E0FFEE32
:1007AE00540FFEEF4EF0900145E0FF90010AE02459
:1007BE0046F582E43401F583E0FEEF4E900145F0FC
:1007CE00900144E0FF90010BE02446F582E43401F1
:1007DE00F583E0FEEF4E900144F0900133E0FF12FE
:1007EE00114B900132E0FF900150E0FD12114B9041
:1007FE000131E0FF900145E0FD12114B900130E018
:09080E00FF900144E0FD12114BC2
:0108170022BE
:100D3600AD07900153E05430F0EFB40700505790E0
:100D46000D4CF8282873020D61020D68020D710220
:100D56000D7A020D83020D8C020D95900153E0F081
:100D66008034900153E04440F0802B900153E044DE
:100D7600C0F08022900153E044C8F08019900153DE
:100D8600E044CCF08010900153E044CEF080079010
:100D96000153E044CFF0900135E0FF900153E0FDB0
:030DA60002114BEC
:1008F000AD07900152E05488F0900151E0540FF0A0
:10090000EDB4080040030209A2900910F8282873EA
:100910000209280209340209440209540209640246
:100920000974020984020994900152E0F090015187
:10093000E0F0806E900152E04404F0900151E044F8
:1009400040F0805E900152E04402F0900151E0449A
:1009500020F0804E900152E04401F0900151E044BB
:1009600010F0803E900152E04406F0900151E044C6
:1009700060F0802E900152E04405F0900151E04477
:1009800050F0801E900152E04403F0900151E04489
:1009900030F0800E900152E04407F0900151E044A5
:1009A00070F0900134E0FF900152E0FD12114B9085
:0C09B0000133E0FF900151E0FD02114B0B
:10135000900152E054F7F0EFB40104E04408F0903B
:0C1360000134E0FF900152E0FD02114B4F
:10136C00900143E054EFF0EFB40104E04410F0902E
:0C137C00012FE0FF900143E0FD02114B47
:10138800900143E054DFF0EFB40104E04420F09012
:0C139800012FE0FF900143E0FD02114B2B
:1013A400900143E054BFF0EFB40104E04440F090F6
:0C13B400012FE0FF900143E0FD02114B0F
:1013C000900143E0547FF0EFB40104E04480F090DA
:0C13D000012FE0FF900143E0FD02114BF3
:1013DC00900144E054F7F0EFB40104E04408F090BD
:0C13EC000130E0FF900144E0FD02114BD5
:1013F800900153E054DFF0EFB40104E04420F09092
:0C1408000135E0FF900153E0FD02114BA4
:10141400900152E054EFF0EFB40104E04410F09076
:0C1424000134E0FF900152E0FD02114B8A
:10143000900153E054EFF0EFB40104E04410F09059
:0C1440000135E0FF900153E0FD02114B6C
:10119000900108EFF07F011213F8900108E0B4010C
:1011A0001390013FE0FF12141490013FE0FFC3745D
:0F11B000019F80067F01121414E4FF12143022F5
:1011BF00900138E0640170177F0112136C90013DAC
:1011CF00E0B40102800EE4FF121190E4FF800CE402
:0F11DF00FF12136C7F011211907F011213502227
:10124600900136E0FF1206E9900137E0FF120D36F5
:1012560090013AE0FF1208F0900138E0FF12136C9B
:081266001211BF7F010213DC2D
:040F9500410177009F
:100818009001077464F0900176E0640160030208B7
:10082800EFA3E01470030208D614604A24FE607235
:100838001470030208DA24FC70030208E124FC7037
:10084800030208E5240D60030208EA900177E070CE
:1008580015900107E0D39400400CE014F07F0A7E65
:10086800001212DC80E5900107E07003FF80027F30
:100878000112115E806C900177E0B40215900107B7
:10088800E0D39400400CE014F07F0A7E001212DCE2
:1008980080E4900107E07005120A738045121294F3
:1008A8008040900177E0B40415900107E0D39400EC
:1008B800400CE014F07F0A7E001212DC80E4900104
:1008C80007E070051212BA801912108580147F0192
:1008D80080027F051210BE80097F0980027F0D12F9
:0708E80010F5E4900176F029
:0108EF0022E6
:10115E00EFB401147F0112126E9001427401F0FB84
:10116E00E4FD7F06FE020CBF7F0212126EE49001B8
:10117E0042F0FBFD7F06FE120CBF7FE87E031212CB
:02118E00DC2261
:1010BE00EFB4010D900136E0C394645004E02405B2
:1010CE00F0EFB4050D900136E0D394004004E02417
:1010DE00FBF0900136E0FF1206E9900136E0FBE4EA
:0710EE00FD7F03FE020CBFB1
:1010F500EFB4090C900137E0C394065003E004F007
:10110500EFB40D0C900137E0D394004003E014F0E8
:10111500900137E0FF120D36900137E0FBE4FD7FCB
:0511250002FE020CBFF8
:1012940090013AE0B407057401F0800690013AE049
:1012A40004F090013AE0FF1208F090013AE0FBE408
:0612B400FDFFFE020CBF6D
:10108500900139E0B405057401F08006900139E05E
:1010950004F0120FBD7F011213C0900139E0FF1259
:1010A50006E97FF47E011212DC120FBD900139E0D2
:0910B500FBE4FD7F05FE020CBF07
:100A7300120FBD7FE87E03020B0C900177E0640246
:100A83007003020B127F011213A4900141E0B40121
:100A93000A90013CE0FF1206E98028900133E0FF51
:100AA300E4FD12114B900132E0FFE4FD12114B9073
:100AB3000131E0FFE4FD12114B900130E0FFE4FD52
:100AC30012114B900177E0B4011D90013CE0C394F7
:100AD300785014E004F0E0FBE4FD7F04FE120CBF49
:100AE3007F2C7E011212DC900177E06405708B90FD
:100AF300013CE0D394284082E014F0E0FBE4FD7F66
:100B030004FE120CBF7F2C7E011212DC020A7D123E
:090B130012467FF47E010212DC9F
:1012BA00900138E0FFC374019FFFF012136C900194
:1012CA0038E0FBE4FD7F01FE120CBF7FE87E0302DB
:0212DA0012DC24
:100F99004201740000420168000042016A000042F7
:100FA900016C000042016E00004201700000420124
:030FB900720000C3
:03009B00020597C4
:0D059700C0E0C083C082C0D075D000C00796
:1005A400900169E004F07006900168E004F0C390E3
:1005B4000169E09405900168E09400400FE5A054BF
:1005C4000F900177F0900168E4F0A3F0900176E0D9
:1005D400702590016BE004F0700690016AE004F06D
:1005E40090016AE07004A3E06414700B90016AF057
:1005F400A3F090017604F090016DE004F070069091
:10060400016CE004F090016CE07004A3E0640F70EE
:100614001190013FE0FFC374019FF090016CE4F07E
:10062400A3F0900175E004F07006900174E004F00A
:10063400900174E07004A3E06464700C900165049C
:10064400F0900174E4F0A3F090016FE004F0700600
:1006540090016EE004F090016EE07004A3E0643257
:100664007011900141E0FFC374019FF090016EE4AA
:10067400F0A3F0900177E0B40F29900171E004F049
:100684007006900170E004F0900170E0B4011FA3C3
:10069400E0B4F41A900142E0B401139001667401CD
:1006A400F0800B900170E4F0A3F0900166F09001EB
:1006B40067E07026900173E004F07006900172E028
:1006C40004F0900172E07004A3E06402700C9001E5
:0A06D4006704F0900172E4F0A3F057
:0B06DE00D007D0D0D082D083D0E03213
:10002600900000E0640170647B017A0079819001A0
:1000360005E024FEFD120EFAAD07AC06900105E0C0
:10004600FB247FF582E43400F583E0FE74802BF513
:1000560082E43400F583E0FBEBFFB50526ECB5063C
:1000660022900081E0B4DC1BA3E024FC600D24FE9A
:10007600600E2403700D1209BC8008120B1C80034D
:0C008600121004E4900000F0900105F05E
:01009200224B
:0E14E5009001677401F0E4900165F0A3F0221D
:1009BC009001567403F0A3E0FEA3E0FF900159E010
:1009CC00FCA3E0FD900158E02DFD900157E03CFCAC
:1009DC00C3EF9DEE9C4003020A6A900156E024810D
:1009EC00F582E43400F583E0900154F0900156E078
:1009FC002482F582E43400F583E0900155F0EE702A
:100A0C004EEF14601A14602114602814602F1460C7
:100A1C00362405703A900155E090013AF080309000
:100A2C000155E0900138F08026900155E090013797
:100A3C00F0801C900155E0900136F0801290015529
:100A4C00E090013CF08008900155E0900139F09065
:100A5C000156E02402F00FBF00010E0209C89001FC
:070A6C003E7401F002124686
:100B1C009001567403F090015BE0FFA3E090010795
:100B2C00CFF0A3EFF090015DE0FEA3E0FF90015C3D
:100B3C00E02FFF90015BE03EFE900107E0FCA3E09C
:100B4C00FDC39FEC9E505B900156E02481F582E43E
:100B5C003400F583E0900154F0900156E02482F5C6
:100B6C0082E43400F583E0900155F0EC701DED1437
:100B7C006011047016900155E0FF90013BF01213C8
:100B8C00888008900155E090013DF0900156E024DA
:100B9C0002F0900108E004F0708B900107E004F083
:070BAC008083E4900167F073
:010BB300221F
:101004009001567404F0E02481F582E43400F58301
:10101400E0900154F0900156E02482F582E434001B
:10102400F583E0900155F0900163E0FEA3E0FFEE4C
:10103400700FEF24FB700A7FC87E001212DC120DC1
:02104400A922DF
:040EF6007B017D06F9
:050EFA00900112EDF073
:100EFF0074FFA3F0A3F01204F9FF900113E0F0A325
:100F0F00E06FF0E4FD900113E0FEA3E0FF30E01985
:100F1F00EEC313FEEF13FFEE64A0FEEF6401FF902C
:100F2F000113EEF0A3EFF0800B900113E0C313F069
:100F3F00A3E013F00DEDB408CC740129F9E43AFAEB
:0E0F4F00900112E014F070AEA3E0FEA3E0FFEC
:010F5D002271
:10000E00900165E0B4010DA3E0B40108120E1BE4EB
:05001E00900165F022D5
:100DA900E4900157F0A3F0A3F0A37406F0900107B3
:100DB90074DCF0A37403F0900157E0FCA3E0FDECB0
:100DC900900109F0A3EDF0900159E0FCA3E0FDECDE
:100DD90090010BF0A3EDF07A017907120EF6AC063B
:100DE900EC90010DF0A3EFF078017C007D017A0110
:100DF90079077E007F081204D39001017408F0D2AC
:100E0900847F027E001212DC4384027F017E00028D
:020E190012DCE9
:100E1B00E490015BF0A3F0A3F0A37402F090010740
:100E2B0074DCF0A37404F090015BE0FCA3E0FDEC38
:100E3B00900109F0A3EDF090015DE0FCA3E0FDEC67
:100E4B0090010BF0A3EDF07A017907120EF6AC06C8
:100E5B00EC90010DF0A3EFF078017C007D017A019D
:100E6B0079077E007F081204D39001017408F0D239
:100E7B00847F027E001212DC4384027F017E00021B
:020E8B0012DC77
:080CBF00900108EEF0A3EFF034
:100CC700900167E060FA900108E0FFA3E0900163FC
:100CD700CFF0A3EFF090010A74DCF0A37406F09054
:100CE7000163E090010CF0900163A3E090010DF027
:100CF700A3EDF0A3EBF07B017A01790A7D06120ED2
:100D0700FAAC06EC900110F0A3EFF078017C007DBF
:100D1700017A01790A7E007F081204D390010174D9
:0E0D270008F0D2847F027E001212DC438402A8
:010D3500229B
:100BC000020E8DE493A3F8E493A34003F68001F2B0
:100BD00008DFF48029E493A3F85407240CC8C33336
:100BE000C4540F4420C8834004F456800146F6DF05
:100BF000E4800B0102040810204080900F5EE47E28
:100C0000019360BCA3FF543F30E509541FFEE493F9
:100C1000A360010ECF54C025E060A840B8E493A3C0
:100C2000FAE493A3F8E493A3C8C582C8CAC583CAEB
:100C3000F0A3C8C582C8CAC583CADFE9DEE780BEA3
:010FBC000034
:10040300E709F608DFFA8046E709F208DFFA803EDB
:1004130088828C83E709F0A3DFFA8032E309F608C8
:10042300DFFA8078E309F208DFFA807088828C8330
:10043300E309F0A3DFFA806489828A83E0A3F608E4
:10044300DFFA805889828A83E0A3F208DFFA804CBE
:1004530080D280FA80C680D4806980F28033801095
:1004630080A680EA809A80A880DA80E280CA8033FE
:1004730089828A83ECFAE493A3C8C582C8CCC58376
:10048300CCF0A3C8C582C8CCC583CCDFE9DEE78046
:100493000D89828A83E493A3F608DFF9ECFAA9F0C5
:1004A300EDFB2289828A83ECFAE0A3C8C582C8CC1B
:1004B300C583CCF0A3C8C582C8CCC583CCDFEADE34
:1004C300E880DB89828A83E493A3F208DFF980CC96
:1004D30088F0EF60010E4E60C388F0ED2402B4048F
:1004E3000050B9F582EB2402B4040050AF23234536
:0604F30082239004537304
:1004F900BB010689828A83E0225002E722BBFE0201
:09050900E32289828A83E4932233
:10009E00E508240AF582E43401F583E00508229090
:1000AE00010730070390010AE475F00112055102B1
:1000BE0004F92000E97F2ED2008018EF540F24900F
:1000CE00D43440D4FF30040BEF24BFB41A005003D5
:1000DE002461FFE50960021509050CE50C700205A7
:1000EE000B30070E900107E475F001120551EF0277
:1000FE00053F0214F37403D2078003E4C207F50828
:10010E00900107120568E4F509F50BF50CE5096099
:10011E00077F201200E180F5750AFFC201C200C2FE
:10012E0002C203C205C206C2081200ADFF700D3036
:10013E0007057F001200F2AF0CAE0B22B4255FC292
:10014E00D5C2041200ADFF24D0B40A00501A75F0C7
:10015E000A780930D50508B6FF0106C6A426F62092
:10016E00D5047002D20380D924CFB41A00EF500404
:10017E00C2E5D2040202F3D20180C6D20080C0D200
:10018E000280BCD2D580BAD20580B47F201200E1A5
:10019E002002077401B5090040F112009EFF120003
:1001AE00E102011BD208D206809512009EFB1200BE
:1001BE009EFA12009EF94A4B700679C47A037BFFB1
:1001CE0020022EE509602A7E008E827583001205BC
:1001DE001260060EEE650A70F0C2D5EBC0E0EAC002
:1001EE00E0E9C0E0EE12033AD0E0F9D0E0FAD0E058
:1001FE00FB1204F9FF60AAEBC0E0EAC0E0E9C0E040
:10020E001200E1D0E02401F9D0E03400FAD0E0FB96
:10021E00E50A0460DCD50AD980877BFF7A0379363C
:10022E00D202809C791080027908C206C20880082A
:10023E00D2D5790A8004790AC2D5E50A047002F58E
:10024E000AE4FAFDFEFF12009EFC7B082001131249
:10025E00009EFD7B1030000A12009EFE12009EFFD3
:10026E007B20EC3382D592D55013C3E43000069F29
:10027E00FFE49EFEE42001039DFDE49CFCE4CBF82C
:10028E00C201EC700CCFCECDCCE824F8F870F38020
:10029E0017C3EF33FFEE33FEED33FDEC33FCEB33E0
:1002AE00FB994002FB0FD8E9EB300105F8D0E0C412
:1002BE0048B201C0E00AEC4D4E4F78207B0070C270
:1002CE00EAB50A0040BCC0E012033CD0F0D0E020FA
:1002DE000104C4C0E0C4B201C0F01200CAD0F0D50F
:1002EE00F0EB02011B12057101B85302325801895D
:1002FE004C01854202364F023E44023E49019E4366
:08030E000244550228460228B2
:100316004502284703E450018D2D01912E01B42B8F
:1003260001952301B22003CD2A014D48000001ACFE
:100336003F3F3F00790AA2D5200314300509B910C2
:10034600020404B9080104A2D520060250010420C3
:1003560002689202B509005034C0E07F20300319CC
:100366007F30A20272067205500F120393C202C2B8
:1003760006C205C2087F30800F300503E9C0E012CF
:1003860000E1300503D0E0F9D0E0B509CC3005171F
:100396007F30B9100C1200E17F583004077F788057
:1003A60003B908031200E13002057F2D0200E17F48
:1003B600202008F87F2B2006F322920280CF286E99
:1003C600756C6C2900D20112009E3001F8C20178CA
:1003D6000930D50108F602014D2D50434958120047
:1003E6009E2403B405004001E49003DF931200D27B
:0D03F600743A1200D2D203750904020232DB
:10051200BB010CE58229F582E5833AF583E022509E
:1005220006E92582F8E622BBFE06E92582F8E222E8
:0D053200E58229F582E5833AF583E4932202
:10053F00BB010689828A83F0225002F722BBFE019B
:02054F00F32295
:10055100F8E0FBA3A3E0F925F0F0E5821582700233
:070561001583E0FA38F022D7
:09056800EBF0A3EAF0A3E9F02294
:10057100D083D082F8E4937012740193700DA3A319
:1005810093F8740193F5828883E47374029368602D
:06059100EFA3A3A380DF2D
:00000001FF
