:03000000020C5F90
:0C0C5F00787FE4F6D8FD758121020CA618
:10137400D3EF9400EE9400401600000075080B753E
:0F13840009BED509FDD508FAEF1F70E41E80E100
:011393002237
:10154600D3EF9400EE9400400A000000EF1F70F005
:041556001E80ED22E4
:1013940075941AE4F593F592F591F596F59575B271
:0C13A400FEF5B1F5B4F5B3F5CAF5C922A9
:1013B0003D3D3D3D3D3D20636F646520737461722A
:0C13C00074203D3D3D3D3D3D200D0A00E8
:100FFE0043BA801213941214FE12156D121530128C
:10100E00151712155A12157DD2AF1212867F0212C3
:10101E0013067FE87E03800D900142E0700C1209EA
:10102E00267F0A7E0012137480EE1214E41212DE72
:10103E007BFF7A1379B012010912002612092612CB
:07104E00125712000E80F2A0
:10155A00438E805389F0758ACD758CD4C28DD28C16
:03156A00D2A922E1
:10156D0053D1FDE4F5D575D4DC43D10843AF20222A
:1014FE0053A23F759850438E01438E0475D7E875FD
:09150E00D6FF438E1075A81022CF
:1015300075841043844043D12075D3E875D2FF43AE
:06154000D18043AF102230
:040F9F004101060006
:10151700E4900000F0900081F0900101F0F0A3F05A
:09152700A3F0A3F0A3F0C284229A
:03009300020CEB71
:100CEB00C0E0C083C082C0D075D000C007E584309F
:100CFB00E12A5384FD900101E0601AA3E0FF04F0A8
:100D0B0074012FF582E43400F583E0F58590010141
:100D1B00E014F08007900102E4F0C284E58430E037
:100D2B00335384FE900000E07021900105E0D394D2
:100D3B00804002E4F0900105E02481F582E4340068
:100D4B00F583E585F0900105E004F0900103E4F0F4
:0F0D5B00A37405F0D007D0D0D082D083D0E0327F
:03000B000210DE02
:1010DE00C0E0C083C082C0D0900103E07002A3E0E4
:1010EE006024900104E024FFF0900103E034FFF04F
:1010FE00E07002A3E0700F900105E0D3940040066B
:0F110E009000007401F0D0D0D082D083D0E032B6
:030023000213CCF9
:1013CC00C0E0C083C082309907C299900106E4F056
:0C13DC00309802C298D082D083D0E0325A
:0B158B008F99900106E070FA04F02236
:100FA300410143004101440041014500410150001A
:100FB30041015100410152004101530047012FC338
:100FC300C6C7CACBCECF4A0146F505D39727B6F697
:030FD30015F7B758
:1014E400D285D286D287E4FF1212B2D2857F44120B
:0A14F40012B2D28512105502000357
:1012860090013A7407F09001367432F0A37403F0BB
:10129600E4A3F0A304F090013FF0E490013EF09047
:0C12A600014104F0E4A3F0900176F02276
:10130600EF24FE601204701DC281C2B7C2B6C2B518
:10131600C2B4C2B3C2B222D281C2B2D2B7D2B6D29C
:06132600B5D2B4D2B322DF
:10105500E4FF12143CE4FF121474E4FF121458E484
:10106500FF1214041211DC9001321211DF900131CC
:101075001211DF9001301211DFE4FF1213E8E4FFD3
:10108500120A33E4FF1214ACE4FF1214C8E4FF1291
:071095001490E4FF020DE1DD
:080003007F931212B2D2852294
:1011C200900144E0FF90010CE02446F582E43401F2
:1011D200F583E0FEEF4E900144F0900133E0FFE42E
:0111E200FD0F
:1011E30090010DEDF01212B290010DE0FF1212B258
:0311F300D2852280
:0512B20090010EEFF0B9
:1012B7007F327E00121546C285E4FFC28690010E7A
:1012C700E0FE139287D286EEC313F00FEFB408EB5C
:0712D7007F327E0002154684
:0506E900900109EFF093
:1006EE00E0FF75F06484A3F0EF75F00A8475F00AEC
:1006FE0084A3E5F0F0900109E0FD75F00A84900105
:10070E000CE5F0F0900151E05470F0900150E4F0DF
:10071E00900145E4F0900144E05408F0EDC3940AD2
:10072E00501B900109E0C3940040121211C29001B7
:10073E00321211DF900131E0FFE402080690010948
:10074E00E0FFC394645034EFC3940A402E900145E9
:10075E00E0FF90010BE02446F582E43401F583E0DE
:10076E00FEEF4E900145F01211C29001321211DFD0
:10077E00900131E0FF900145E0807D900151E0FF56
:10078E0090010AE02446F582E43401F583E0FEC4CC
:10079E00540FFDEF4D900151F0FD900150E0FFEE32
:1007AE00540FFEEF4EF0900145E0FF90010BE02458
:1007BE0046F582E43401F583E0FEEF4E900145F0FC
:1007CE00900144E0FF90010CE02446F582E43401F0
:1007DE00F583E0FEEF4E900144F0900133E0FF12FE
:1007EE0011E3900132E0FF900150E0FD1211E39011
:1007FE000131E0FF900145E0FD1211E3900130E080
:09080E00FF900144E0FD1211E32A
:0108170022BE
:100DE100AD07900153E05430F0EFB4070050579035
:100DF1000DF7F8282873020E0C020E13020E1C02C6
:100E01000E25020E2E020E37020E40900153E0F025
:100E11008034900153E04440F0802B900153E04432
:100E2100C0F08022900153E044C8F0801990015332
:100E3100E044CCF08010900153E044CEF080079064
:100E41000153E044CFF0900135E0FF900153E0FD04
:030E51000211E3A8
:100A3300AD07900152E05488F0900151E0540FF05B
:100A4300EDB408004003020AE5900A53F82828731E
:100A5300020A6B020A77020A87020A97020AA702AE
:100A63000AB7020AC7020AD7900152E0F090015177
:100A7300E0F0806E900152E04404F0900151E044B4
:100A830040F0805E900152E04402F0900151E04456
:100A930020F0804E900152E04401F0900151E04477
:100AA30010F0803E900152E04406F0900151E04482
:100AB30060F0802E900152E04405F0900151E04433
:100AC30050F0801E900152E04403F0900151E04445
:100AD30030F0800E900152E04407F0900151E04461
:100AE30070F0900134E0FF900152E0FD1211E390A9
:0C0AF3000133E0FF900151E0FD0211E32F
:1013E800900152E054F7F0EFB40104E04408F090A3
:0C13F8000134E0FF900152E0FD0211E31F
:10140400900143E054EFF0EFB40104E04410F09095
:0C141400012FE0FF900143E0FD0211E316
:10142000900143E054DFF0EFB40104E04420F09079
:0C143000012FE0FF900143E0FD0211E3FA
:10143C00900143E054BFF0EFB40104E04440F0905D
:0C144C00012FE0FF900143E0FD0211E3DE
:10145800900143E0547FF0EFB40104E04480F09041
:0C146800012FE0FF900143E0FD0211E3C2
:10147400900144E054F7F0EFB40104E04408F09024
:0C1484000130E0FF900144E0FD0211E3A4
:10149000900153E054DFF0EFB40104E04420F090F9
:0C14A0000135E0FF900153E0FD0211E374
:1014AC00900152E054EFF0EFB40104E04410F090DE
:0C14BC000134E0FF900152E0FD0211E35A
:1014C800900153E054EFF0EFB40104E04410F090C1
:0C14D8000135E0FF900153E0FD0211E33C
:10122800900109EFF07F01121490900109E0B401D8
:101238001390013FE0FF1214AC90013FE0FFC3742C
:0F124800019F80067F011214ACE4FF1214C8222C
:10125700900138E0640170177F0112140490013D7A
:10126700E0B40102800EE4FF121228E4FF800CE4D0
:0F127700FF1214047F011212287F011213E822C4
:1012DE00900136E0FF1206E9900137E0FF120DE1B2
:1012EE0090013AE0FF120A33900138E0FF12140425
:0812FE001212577F0102147463
:040FD600410177005E
:100926009001077464F0900176E064016003020AA6
:1009360032A3E01470030209FB14604E24FE700318
:100946000209C7147003020A0724FC7003020A1680
:1009560024FC7003020A21240D6003020A2D900173
:1009660077E07015900107E0D39400400CE014F096
:100976007F0A7E0012137480E5900107E07003FF82
:1009860080027F011211F6020A2D900142E06401F5
:100996006003020A2D900177E0B40215900107E08A
:1009A600D39400400CE014F07F0A7E00121374808A
:1009B600E4900107E07005120BB6806B12132C80D1
:1009C60066900142E06401705E900177E0B4041520
:1009D600900107E0D39400400CE014F07F0A7E00FB
:1009E60012137480E4900107E070051213528037E9
:1009F60012111D8032900142E06401702A7F01804D
:100A06000A900142E06401701E7F0512115680179C
:100A1600900142E0B401107F098009900142E0B4E0
:0C0A260001057F0D12118DE4900176F0A7
:010A320022A1
:1011F600EFB401147F011213069001427401F0FB53
:10120600E4FD7F06FE020D6A7F02121306E49001DA
:1012160042F0FBFD7F06FE120D6A7FE87E03121385
:02122600742230
:10115600EFB4010D900136E0C394645004E0240519
:10116600F0EFB4050D900136E0D394004004E0247E
:10117600FBF0900136E0FF1206E9900136E0FBE451
:07118600FD7F03FE020D6A6C
:10118D00EFB4090C900137E0C394065003E004F06E
:10119D00EFB40D0C900137E0D394004003E014F050
:1011AD00900137E0FF120DE1900137E0FBE4FD7F88
:0511BD0002FE020D6AB4
:10132C0090013AE0B407057401F0800690013AE0B0
:10133C0004F090013AE0FF120A3390013AE0FBE42A
:06134C00FDFFFE020D6A28
:10111D00900139E0B405057401F08006900139E0C5
:10112D0004F01210557F01121458900139E0FF128E
:10113D0006E97FF47E01121374121055900139E007
:09114D00FBE4FD7F05FE020D6AC2
:100BB6001210557FE87E03020C4F900177E0640225
:100BC6007003020C557F0112143C900141E0B40100
:100BD6000A90013CE0FF1206E98028900133E0FF0D
:100BE600E4FD1211E3900132E0FFE4FD1211E390FF
:100BF6000131E0FFE4FD1211E3900130E0FFE4FD76
:100C06001211E3900177E0B4011D90013CE0C3941A
:100C1600785014E004F0E0FBE4FD7F04FE120D6A58
:100C26007F2C7E01121374900177E06405708B901F
:100C3600013CE0D394284082E014F0E0FBE4FD7F21
:100C460004FE120D6A7F2C7E01121374020BC01271
:090C560012DE7FF47E010213742A
:10135200900138E0FFC374019FFFF0121404900162
:1013620038E0FBE4FD7F01FE120D6A7FE87E030296
:021372001374F2
:100FDA004201740000420168000042016A000042B6
:100FEA00016C000042016E000042017000004201E3
:030FFA0072000082
:03009B00020597C4
:0D059700C0E0C083C082C0D075D000C00796
:1005A400900169E004F07006900168E004F0C390E3
:1005B4000169E09405900168E09400400FE5A054BF
:1005C4000F900177F0900168E4F0A3F0900176E0D9
:1005D400702590016BE004F0700690016AE004F06D
:1005E40090016AE07004A3E06414700B90016AF057
:1005F400A3F090017604F090016DE004F070069091
:10060400016CE004F090016CE07004A3E0640F70EE
:100614001190013FE0FFC374019FF090016CE4F07E
:10062400A3F0900175E004F07006900174E004F00A
:10063400900174E07004A3E06464700C900165049C
:10064400F0900174E4F0A3F090016FE004F0700600
:1006540090016EE004F090016EE07004A3E0643257
:100664007011900141E0FFC374019FF090016EE4AA
:10067400F0A3F0900177E0B40F29900171E004F049
:100684007006900170E004F0900170E07004A3E043
:1006940064C8701A900142E0B401139001667401B9
:1006A400F0800B900170E4F0A3F0900166F09001EB
:1006B40067E07026900173E004F07006900172E028
:1006C40004F0900172E07004A3E06402700C9001E5
:0A06D4006704F0900172E4F0A3F057
:0B06DE00D007D0D0D082D083D0E03213
:10002600900000E0640170647B017A0079819001A0
:1000360005E024FEFD120F3BAD07AC06900105E07E
:10004600FB247FF582E43400F583E0FE74802BF513
:1000560082E43400F583E0FBEBFFB50526ECB5063C
:1000660022900081E0B4011BA3E024FC600D24FE75
:10007600600E2403700D120AFF8008120818800310
:0C00860012109CE4900000F0900105F0C6
:01009200224B
:0E157D009001677401F0E4900165F0A3F02284
:100AFF009001567403F0A3E0FEA3E0FF900159E0CC
:100B0F00FCA3E0FD900158E02DFD900157E03CFC67
:100B1F00C3EF9DEE9C4003020BAD900156E0248184
:100B2F00F582E43400F583E0900154F0900156E033
:100B3F002482F582E43400F583E0900155F0EE70E5
:100B4F004EEF14601A14602114602814602F146083
:100B5F00362405703A900155E090013AF0803090BC
:100B6F000155E0900138F08026900155E090013753
:100B7F00F0801C900155E0900136F08012900155E5
:100B8F00E090013CF08008900155E0900139F09021
:100B9F000156E02402F00FBF00010E020B0B900173
:070BAF003E7401F00212DEAA
:100818009001567403F090015BE0FFA3E09001079C
:10082800CFF0A3EFF090015DE0FEA3E0FF90015C44
:10083800E02FFF90015BE03EFE900107E0FCA3E0A3
:10084800FDC39FEC9E400302091E900156E02481DF
:10085800F582E43400F583E0900154F0900156E00D
:100868002482F582E43400F583E0900155F0EC60D1
:1008780003020903EDB40900400302090390088C40
:10088800F82828730208A70208B50208BF0208C999
:100898000208D30208DD0208E70208F10208FB900B
:1008A8000155E0FF90013BF0121420804E90015555
:1008B800E090013DF08044900155E090013AF080CD
:1008C8003A900155E0900138F08030900155E09061
:1008D8000137F08026900155E0900136F0801C9099
:1008E8000155E090013CF08012900155E0900139EB
:1008F800F08008900155E0900142F0900156E02404
:1009080002F0900108E004F0600302082D9001074E
:0E091800E004F002082DE4900167F00212DE08
:10109C009001567404F0E02481F582E43400F58369
:1010AC00E0900154F0900156E02482F582E4340083
:1010BC00F583E0900155F0900163E0FEA3E0FFEEB4
:1010CC00700FEF24FB700A7FC87E00121374120E8F
:0210DC00C6222A
:040F37007B017D06B7
:050F3B00900112EDF031
:100F400074FFA3F0A3F01204F9FF900113E0F0A3E3
:100F5000E06FF0E4FD900113E0FEA3E0FF30E01944
:100F6000EEC313FEEF13FFEE64A0FEEF6401FF90EB
:100F70000113EEF0A3EFF0800B900113E0C313F028
:100F8000A3E013F00DEDB408CC740129F9E43AFAAA
:0E0F9000900112E014F070AEA3E0FEA3E0FFAB
:010F9E002230
:10000E00900165E0B4010DA3E0B40108120E54E4B2
:05001E00900165F022D5
:100EC600E4900157F0A3F0A3F0A37406F090010795
:100ED6007402F0A304F0900157E0FCA3E0FDEC904F
:100EE6000109F0A3EDF0900159E0FCA3E0FDEC90C0
:100EF600010BF0A3EDF07A017907120F37AC06EC7F
:100F060090010DF0A3EFF078017C007D017A017964
:100F1600077E007F081204D39001017408F0D28482
:100F26007F027E001213744384027F017E00021347
:010F36007446
:100E5400E490015BF0A3F0A3F0A37409F090010700
:100E64007402F0A37404F090015BE0FCA3E0FDECD9
:100E7400900109F0A3EDF090015DE0FCA3E0FDEC2E
:100E840090010BF0A3EDF07A017907120F37AC064D
:100E9400EC90010DF0A3EFF078017C007D017A0164
:100EA40079077E007F081204D39001017408F0D200
:100EB400847F027E001213744384027F017E000249
:020EC4001374A5
:080D6A00900108EEF0A3EFF088
:100D7200900167E060FA900108E0FFA3E090016350
:100D8200CFF0A3EFF090010A7402F0A37406F09082
:100D92000163E090010CF0900163A3E090010DF07B
:100DA200A3EDF0A3EBF07B017A01790A7D06120F25
:100DB2003BAC06EC900110F0A3EFF078017C007DD3
:100DC200017A01790A7E007F081204D3900101742E
:0E0DD20008F0D2847F027E0012137443840264
:010DE00022F0
:100C6B00020FFEE493A3F8E493A34003F68001F292
:100C7B0008DFF48029E493A3F85407240CC8C3338A
:100C8B00C4540F4420C8834004F456800146F6DF59
:100C9B00E4800B0102040810204080900F9FE47E3B
:100CAB00019360BCA3FF543F30E509541FFEE4934E
:100CBB00A360010ECF54C025E060A840B8E493A315
:100CCB00FAE493A3F8E493A3C8C582C8CAC583CA40
:100CDB00F0A3C8C582C8CAC583CADFE9DEE780BEF8
:010FFD0000F3
:10040300E709F608DFFA8046E709F208DFFA803EDB
:1004130088828C83E709F0A3DFFA8032E309F608C8
:10042300DFFA8078E309F208DFFA807088828C8330
:10043300E309F0A3DFFA806489828A83E0A3F608E4
:10044300DFFA805889828A83E0A3F208DFFA804CBE
:1004530080D280FA80C680D4806980F28033801095
:1004630080A680EA809A80A880DA80E280CA8033FE
:1004730089828A83ECFAE493A3C8C582C8CCC58376
:10048300CCF0A3C8C582C8CCC583CCDFE9DEE78046
:100493000D89828A83E493A3F608DFF9ECFAA9F0C5
:1004A300EDFB2289828A83ECFAE0A3C8C582C8CC1B
:1004B300C583CCF0A3C8C582C8CCC583CCDFEADE34
:1004C300E880DB89828A83E493A3F208DFF980CC96
:1004D30088F0EF60010E4E60C388F0ED2402B4048F
:1004E3000050B9F582EB2402B4040050AF23234536
:0604F30082239004537304
:1004F900BB010689828A83E0225002E722BBFE0201
:09050900E32289828A83E4932233
:10009E00E508240AF582E43401F583E00508229090
:1000AE00010730070390010AE475F00112055102B1
:1000BE0004F92000E97F2ED2008018EF540F24900F
:1000CE00D43440D4FF30040BEF24BFB41A005003D5
:1000DE002461FFE50960021509050CE50C700205A7
:1000EE000B30070E900107E475F001120551EF0277
:1000FE00053F02158B7403D2078003E4C207F5088F
:10010E00900107120568E4F509F50BF50CE5096099
:10011E00077F201200E180F5750AFFC201C200C2FE
:10012E0002C203C205C206C2081200ADFF700D3036
:10013E0007057F001200F2AF0CAE0B22B4255FC292
:10014E00D5C2041200ADFF24D0B40A00501A75F0C7
:10015E000A780930D50508B6FF0106C6A426F62092
:10016E00D5047002D20380D924CFB41A00EF500404
:10017E00C2E5D2040202F3D20180C6D20080C0D200
:10018E000280BCD2D580BAD20580B47F201200E1A5
:10019E002002077401B5090040F112009EFF120003
:1001AE00E102011BD208D206809512009EFB1200BE
:1001BE009EFA12009EF94A4B700679C47A037BFFB1
:1001CE0020022EE509602A7E008E827583001205BC
:1001DE001260060EEE650A70F0C2D5EBC0E0EAC002
:1001EE00E0E9C0E0EE12033AD0E0F9D0E0FAD0E058
:1001FE00FB1204F9FF60AAEBC0E0EAC0E0E9C0E040
:10020E001200E1D0E02401F9D0E03400FAD0E0FB96
:10021E00E50A0460DCD50AD980877BFF7A0379363C
:10022E00D202809C791080027908C206C20880082A
:10023E00D2D5790A8004790AC2D5E50A047002F58E
:10024E000AE4FAFDFEFF12009EFC7B082001131249
:10025E00009EFD7B1030000A12009EFE12009EFFD3
:10026E007B20EC3382D592D55013C3E43000069F29
:10027E00FFE49EFEE42001039DFDE49CFCE4CBF82C
:10028E00C201EC700CCFCECDCCE824F8F870F38020
:10029E0017C3EF33FFEE33FEED33FDEC33FCEB33E0
:1002AE00FB994002FB0FD8E9EB300105F8D0E0C412
:1002BE0048B201C0E00AEC4D4E4F78207B0070C270
:1002CE00EAB50A0040BCC0E012033CD0F0D0E020FA
:1002DE000104C4C0E0C4B201C0F01200CAD0F0D50F
:1002EE00F0EB02011B12057101B85302325801895D
:1002FE004C01854202364F023E44023E49019E4366
:08030E000244550228460228B2
:100316004502284703E450018D2D01912E01B42B8F
:1003260001952301B22003CD2A014D48000001ACFE
:100336003F3F3F00790AA2D5200314300509B910C2
:10034600020404B9080104A2D520060250010420C3
:1003560002689202B509005034C0E07F20300319CC
:100366007F30A20272067205500F120393C202C2B8
:1003760006C205C2087F30800F300503E9C0E012CF
:1003860000E1300503D0E0F9D0E0B509CC3005171F
:100396007F30B9100C1200E17F583004077F788057
:1003A60003B908031200E13002057F2D0200E17F48
:1003B600202008F87F2B2006F322920280CF286E99
:1003C600756C6C2900D20112009E3001F8C20178CA
:1003D6000930D50108F602014D2D50434958120047
:1003E6009E2403B405004001E49003DF931200D27B
:0D03F600743A1200D2D203750904020232DB
:10051200BB010CE58229F582E5833AF583E022509E
:1005220006E92582F8E622BBFE06E92582F8E222E8
:0D053200E58229F582E5833AF583E4932202
:10053F00BB010689828A83F0225002F722BBFE019B
:02054F00F32295
:10055100F8E0FBA3A3E0F925F0F0E5821582700233
:070561001583E0FA38F022D7
:09056800EBF0A3EAF0A3E9F02294
:10057100D083D082F8E4937012740193700DA3A319
:1005810093F8740193F5828883E47374029368602D
:06059100EFA3A3A380DF2D
:00000001FF
