:03000000020C17D8
:0C0C1700787FE4F6D8FD758121020C5EA8
:10137200D3EF9400EE9400401600000075080B7540
:0F13820009BED509FDD508FAEF1F70E41E80E102
:011391002239
:1015AA00D3EF9400EE9400400A000000EF1F70F0A1
:0415BA001E80ED2280
:1013AF0075941AE4F593F592F591F596F59575B256
:0C13BF00FEF5B1F5B4F5B3F5CAF5C9228E
:1013CB003D3D3D3D3D3D20636F646520737461720F
:0C13DB0074203D3D3D3D3D3D200D0A00CD
:100D220043BA801213AF1215331215D11215941251
:100D3200154C1215BED2AF9001827401F090018160
:100D4200F07F0212132812134E7FE87E03800D906B
:100D52000158E0700C1206E97F0A7E0012137280BD
:100D6200EE1214FF900154E0700F12116B120E126A
:100D72007F327E0012137280EB12122E12126C7BE3
:100D8200FF7A1379CB120109120E121206E9120F21
:0D0D92004512000E7F0A7E0012137280EBE6
:1015BE00438E805389F0758ACD758CD4C28DD28CB2
:0315CE00D2A9227D
:1015D10053D1FDE4F5D575D4DC43D10843AF2022C6
:1015330053A23F759850438E01438E0475D7E875C7
:09154300D6FF438E1075A810229A
:1015940075841043844043D12075D3E875D2FF434A
:0615A400D18043AF1022CC
:040FA50041010700FF
:10154C00E4900000F0900081F0900101F0F0A3F025
:09155C00A3F0A3F0A3F0C2842265
:03009300020CA3B9
:100CA300C0E0C083C082C0D075D000C007E58430E7
:100CB300E12A5384FD900101E0601AA3E0FF04F0F0
:100CC30074012FF582E43400F583E0F5859001018A
:100CD300E014F08007900102E4F0C284E58430E080
:100CE300335384FE900000E07021900105E0D3941B
:100CF300804002E4F0900105E02481F582E43400B1
:100D0300F583E585F0900105E004F0900103E4F03C
:0F0D1300A37405F0D007D0D0D082D083D0E032C7
:03000B000211B02F
:1011B000C0E0C083C082C0D0900103E07002A3E011
:1011C0006024900104E024FFF0900103E034FFF07C
:1011D000E07002A3E0700F900105E0D39400400698
:0F11E0009000007401F0D0D0D082D083D0E032E4
:030023000213E7DE
:1013E700C0E0C083C082309907C299900107E4F03A
:0C13F700309802C298D082D083D0E0323F
:0B15E1008F99900107E070FA04F022DF
:100FA9004101590041015A0041015B0041016600BC
:100FB900410167004101680041016900470146C3D9
:100FC900C6C7CACBCECF4A015CF505D39727B6F67B
:030FD90015F7B752
:1014FF00D285D286D287E4FF1212D3D2857F4412CF
:0A150F0012D3D28512122E0200033F
:10134E00E4900151F090014DF0A3F0A3F0A304F04E
:10135E00900155F0E4900154F0900156F0A304F082
:04136E00E4A3F022E2
:10132800EF24FE601204701DC281C2B7C2B6C2B5F6
:10133800C2B4C2B3C2B222D281C2B2D2B7D2B6D27A
:06134800B5D2B4D2B322BD
:10122E00E4FF12143BE4FF121457E4FF12141FE400
:10123E00FF12148FE4FF121473E490010BF090016F
:10124E000BE0FFC39407501574462FF582E434016A
:0D125E00F58312151C90010BE004F080E1F7
:01126B002260
:080003007F931212D3D2852273
:0715190090014AE0FFE4FD30
:1015200090010CEDF01212D390010CE0FF1212D3D7
:03153000D285223F
:0512D30090010DEFF099
:1012D8007F327E001215AAC285E4FFC28690010DF6
:1012E800E0FE139287D286EEC313F00FEFB408EB3B
:0712F8007F327E000215AAFF
:0608080090010BEFF0F976
:10080E00E0FF75F06484FDEF75F00A8475F00A84DC
:10081E00AFF0E975F00A84AEF0900167E4F0900154
:10082E0066E4F090015BE4F090015AE05408F09019
:10083E000167E0FC745C2DF582E43401F583E0FB86
:10084E00C4540FFAEC4A900167F0900166E04BF049
:10085E0090015BE0FD745C2FF582E43401F583E0DA
:10086E00FFED4F90015BF090015AE0FF745C2EF5A6
:10087E0082E43401F583E0FEEF4E90015AF0E9C3B5
:10088E00940A501A90010BE0C394004011121519EE
:10089E0090014912151C900148E0FFE48047900139
:1008AE000BE0FFC39464501AEFC3940A4014121560
:1008BE001990014912151C900148E0FF90015BE070
:1008CE00802390014AE0FF900167E0FD1215209011
:1008DE000149E0FF900166E0FD121520900148E00D
:1008EE00FF90015BE0FD121520900147E0FF9001A3
:0608FE005AE0FD12152076
:0109040022D0
:100D9F00AD07900169E05430F0EFB4070050579061
:100DAF000DB5F8282873020DCA020DD1020DDA0213
:100DBF000DE3020DEC020DF5020DFE900169E0F05E
:100DCF008034900169E04440F0802B900169E04449
:100DDF00C0F08022900169E044C8F0801990016949
:100DEF00E044CCF08010900169E044CEF080079091
:100DFF000169E044CFF090014CE0FF900169E0FD04
:030E0F00021520A9
:100AAF00AD07900168E05480F0900167E4F0EDB479
:100ABF0008004003020B5F900ACDF8282873020A42
:100ACF00E5020AF1020B01020B11020B21020B319D
:100ADF00020B41020B51900168E4F0900167E4F0C2
:100AEF00806E900168E04404F0900167E04440F0AC
:100AFF00805E900168E04402F0900167E04420F0CE
:100B0F00804E900168E04401F0900167E04410F0DE
:100B1F00803E900168E04406F0900167E04460F089
:100B2F00802E900168E04405F0900167E04450F09A
:100B3F00801E900168E04403F0900167E04430F0BC
:100B4F00800E900168E04407F0900167E04470F078
:100B5F0090014BE0FF900168E0FD12152090014AD3
:0A0B6F00E0FF900167E0FD02152091
:10140300900168E054F7F0EFB40104E04408F09071
:0C141300014BE0FF900168E0FD02152095
:10141F00900159E054EFF0EFB40104E04410F09064
:0C142F000146E0FF900159E0FD0215208D
:10143B00900159E054DFF0EFB40104E04420F09048
:0C144B000146E0FF900159E0FD02152071
:10145700900159E054BFF0EFB40104E04440F0902C
:0C1467000146E0FF900159E0FD02152055
:10147300900159E0547FF0EFB40104E04480F09010
:0C1483000146E0FF900159E0FD02152039
:10148F0090015AE054F7F0EFB40104E04408F090F3
:0C149F000147E0FF90015AE0FD0215201B
:1014AB00900169E054DFF0EFB40104E04420F090C8
:0C14BB00014CE0FF900169E0FD021520EB
:1014C700900168E054EFF0EFB40104E04410F090AD
:0C14D700014BE0FF900168E0FD021520D1
:1014E300900169E054EFF0EFB40104E04410F09090
:0C14F300014CE0FF900169E0FD021520B3
:100F4500900156E070597F011214AB90014EE0D329
:100F550094004041A3E06401701C7F0112141F90AE
:100F65000153E0B4010280137F011214C7E4FF129C
:100F750014E3E4FF801CE4FF12141F900155E0FF09
:100F85001214C7900155E0FFC374019FFF1214E3CB
:100F95007F010214037F011214C7E4FF1214E32238
:10126C0090014DE0FF12080890014EE0FF120D9F17
:10127C00900151E0FF120AAF90014FE0FF12141FD2
:10128C0090014FE0B40104E4FF80027F01121403CB
:0A129C007F0112148FE4FF021457C3
:040FDC00410183004C
:1006E900900182E064016003020807A3E0146051ED
:1006F90014700302078524FE70030207CA146050B0
:1007090024FC605B24FC6066240D600302080790EA
:1007190001087464F0900183E07015900108E0D33A
:100729009400400CE014F07F0A7E0012137280E5F9
:10073900900108E07003FF80027F011212A60208EF
:1007490002900158E0B401057F0112111402080258
:10075900900158E0B401057F0512111402080290B6
:100769000158E0B401057F091212FF020802900145
:1007790058E0B401057F0D1212FF807D900158E009
:100789006401703B9001097464F0900183E0B40244
:1007990015900109E0D39400400CE014F07F0A7E23
:1007A9000012137280E4900109E070051209E180DA
:1007B9000E900156E0B40104E4F080031213928014
:1007C90038900158E06401703090010A7464F09027
:1007D9000183E0B4041590010AE0D39400400CE0D1
:1007E90014F07F0A7E0012137280E490010AE0700F
:0E07F9000512156580031210BAE4900182F01B
:0108070022CE
:1012A600EFB40114900158E070227F0112132890C8
:1012B60001587401F002105F7F02121328E49001B6
:0D12C60058F01210047FE87E03121372220C
:10111400EF64017023900156E0700F90014DE0C31D
:1011240094645027E02405F08021900152E0C39498
:10113400785029E004F08024900156E07012900168
:101144004DE0D394004004E024FBF090014D800F67
:10115400900152E0D394284003E014F0900152E04F
:07116400FF120808020B79DD
:1012FF00EFB4090E90014EE0C394065011E004F0D4
:10130F00800C90014EE0D394004003E014F0900164
:09131F004EE0FF120D9F020B7954
:10139200900151E0B407057401F08006900151E01C
:0D13A20004F0900151E0FF120AAF020B7938
:1010BA00900150E0C39406500AE004F0E0B406033D
:1010CA007401F012122E7F01121473900150E0FF86
:1010DA001208087FF47E0112137212122EE4FF1214
:1010EA00147390014FE0FF12141F90014DE0FF129C
:1010FA000808900151E0FF120AAF90014EE0FF127A
:0A110A000D9F7F0112148F020EE406
:1009E100120B797FF4020A9A900183E0640270038A
:1009F100020AA2900157E0B40114E4FF12148F908F
:100A01000152E0FF1208087F011214578052900131
:100A11004CE0FFE4FD12152090014BE0FFE4FD12D4
:100A2100152090014AE0FFE4FD121520900149E0F4
:100A3100FFE4FD121520900148E0FFE4FD121520AE
:100A4100900147E0FFE4FD121520900146E0FF7D93
:100A510040121520E4FF12141F7F057E001213724D
:100A6100900183E0B40116900152E0C394785003E1
:100A7100E004F0120B797F2C7E0112137290018336
:100A8100E0640560030209E9900152E0D394284033
:100A910003E014F0120B797F2C7E0112137202090C
:0E0AA100E9120B7912126C7FE87E03021372C9
:1015650090014FE0FFC374019FFFF012141F120B8F
:08157500797FE87E0302137286
:100FE000420176000042016A000042016C000042AA
:100FF000016E0000420170000042017200004201D7
:0310000074000079
:03009B00020597C4
:0D059700C0E0C083C082C0D075D000C00796
:1005A40090016BE004F0700690016AE004F0C390DF
:1005B400016BE0940590016AE09400400FE5A054BB
:1005C4000F900183F090016AE4F0A3F0900182E0BF
:1005D400702590016DE004F0700690016CE004F069
:1005E40090016CE07004A3E06414700B90016CF053
:1005F400A3F090018204F090016FE004F070069083
:10060400016EE004F090016EE07004A3E0640F70EA
:1006140011900155E0FFC374019FF090016EE4F066
:10062400A3F0900177E004F07006900176E004F006
:10063400900176E07004A3E06464700C90017F0480
:10064400F0900176E4F0A3F0900171E004F07006FC
:10065400900170E004F0900170E07004A3E0643253
:100664007011900157E0FFC374019FF0900170E492
:10067400F0A3F0900183E0B40F29900173E004F03B
:100684007006900172E004F0900172E0B4011FA3BF
:10069400E0B4F41A900158E0B4011390018074019D
:1006A400F0800B900172E4F0A3F0900180F09001CF
:1006B40081E07026900175E004F07006900174E00A
:1006C40004F0900174E07004A3E06402700C9001E3
:0A06D4008104F0900174E4F0A3F03B
:0B06DE00D007D0D0D082D083D0E03213
:10157D00747474200D0A00DC030000000645D7DCEE
:07158D0004000000024663A8
:100E1200900000E064017065F07B017A00798190B6
:100E22000105E024FEFD120E80AD07AC069001051F
:100E3200E0FB247FF582E43400F583E0FE74802B2E
:100E4200F582E43400F583E0FBEBFFE4900105F06A
:100E5200EDB50729ECB50625900081E0B4DC1EA3B0
:100E6200E024FC600F24FE600E24F6600D240D7059
:0D0E72000C0209050200260215EC12009189
:010E7F002250
:100905009001087403F0E4A3F0A3F0900109E0FE60
:10091500A3E0FFC39406EE940040030209D8EE60FD
:10092500030209BDEF14602714603F146050146082
:1009350061146072240560030209BD900108E0247A
:1009450082F582E43400F583E0900151F0806990EE
:100955000108E02482F582E43400F583E090014F3C
:10096500F064017053120B79804E900108E02482E7
:10097500F582E43400F583E090014EF0803A900171
:1009850008E02482F582E43400F583E090014DF01F
:100995008026900108E02482F582E43400F583E0A6
:1009A500900152F08012900108E02482F582E4342F
:1009B50000F583E0900150F0900108E02402F090EA
:1009C500010AE004F06003020910900109E004F057
:0C09D5000209109001547401F002126C31
:100026009001087403F0E4A3F0A3F0900109E0FE48
:10003600A3E0FFC39402EE9400504AEE7030EF1432
:100046006017047029900108E02482F582E43400E8
:10005600F583E0FF12143B8015900108E02482F539
:1000660082E43400F583E0900153F0120F459001CD
:1000760008E02402F090010AE004F070AE90010955
:0A008600E004F080A6E4900181F090
:01009000224D
:0B15EC00900084E0B4050312116B2294
:01009100224C
:050E800090011EEDF0E1
:100E850074FFA3F0A3F01204F9FF90011FE0F0A393
:100E9500E06FF0E4FD90011FE0FEA3E0FF30E019F4
:100EA500EEC313FEEF13FFEE64A0FEEF6401FF90A7
:100EB500011FEEF0A3EFF0800B90011FE0C313F0CC
:100EC500A3E013F00DEDB408CC740129F9E43AFA66
:0E0ED50090011EE014F070AEA3E0FEA3E0FF5B
:010EE30022EC
:10116B0078087C017D017BFF7A1579847E007F08EE
:10117B001204D3900181E060FA78017C007D017B41
:10118B00017A0179087E007F081204D39001017463
:10119B0008F0D2847F027E001213724384027F0117
:0511AB007E000213723A
:1011EF0078087C017D017BFF7A15798C7E007F0862
:1011FF001204D378017C007D017B017A0179087E8E
:10120F00007F081204D39001017408F0D2847F028A
:0F121F007E001213724384027F017E000213725D
:100EE400900181E060FA90010B74DCF0A37406F0C9
:100EF400E4A3F0A37405F0E4A3F0900150E09001A2
:100F040010F07B017A01790B7D06120E80AC06ECA1
:100F1400900111F0A3EFF078017C007D017A017952
:100F24000B7E007F081204D39001017408F0D28470
:100F34007F027E001213724384027F0A7E00021332
:010F4400723A
:100B7900900181E060FA90010B74DCF0A37410F02D
:100B8900E4A3F0A3F0A3F0A37405F0A3740AF0E4BE
:100B9900A3F0900151E0900113F0E4A3F090014F0C
:100BA900E0900115F0E4A3F090014EE0900117F0F8
:100BB900E4A3F090014DE0900119F0E4A3F0900155
:100BC90052E090011BF07B017A01790B7D11120E25
:100BD90080AC06EC90011CF0A3EFF078017C007D5D
:100BE900017A01790B7E007F131204D390010174FD
:100BF90013F0D2847F027E001213724384027F01B4
:0E0C09007E001213727BFF7A15797D020109BD
:10000E0090017FE0B4010DA3E0B401081211EFE4FA
:05001E0090017FF022BB
:10100400900181E060FA90010B74DCF0A37406F0A7
:10101400E4A3F0A37404F0E4A3F0A304F0FB7A01C6
:10102400790B7D06120E80AC06EC900111F0A3EF53
:10103400F078017C007D017A01790B7E007F081233
:1010440004D39001017408F0D2847F027E0012134D
:0B105400724384027F017E00021372D1
:10105F00900181E060FA90010B74DCF0A37406F04C
:10106F00E4A3F0A37403F0E4A3F0A304F0FB7A016C
:10107F00790B7D06120E80AC06EC900111F0A3EFF8
:10108F00F078017C007D017A01790B7E007F0812D8
:10109F0004D39001017408F0D2847F027E001213F2
:0B10AF00724384027F017E0002137276
:100C2300020D22E493A3F8E493A34003F68001F2B8
:100C330008DFF48029E493A3F85407240CC8C333D2
:100C4300C4540F4420C8834004F456800146F6DFA1
:100C5300E4800B0102040810204080900FA5E47E7D
:100C6300019360BCA3FF543F30E509541FFEE49396
:100C7300A360010ECF54C025E060A840B8E493A35D
:100C8300FAE493A3F8E493A3C8C582C8CAC583CA88
:100C9300F0A3C8C582C8CAC583CADFE9DEE780BE40
:0110030000EC
:10040300E709F608DFFA8046E709F208DFFA803EDB
:1004130088828C83E709F0A3DFFA8032E309F608C8
:10042300DFFA8078E309F208DFFA807088828C8330
:10043300E309F0A3DFFA806489828A83E0A3F608E4
:10044300DFFA805889828A83E0A3F208DFFA804CBE
:1004530080D280FA80C680D4806980F28033801095
:1004630080A680EA809A80A880DA80E280CA8033FE
:1004730089828A83ECFAE493A3C8C582C8CCC58376
:10048300CCF0A3C8C582C8CCC583CCDFE9DEE78046
:100493000D89828A83E493A3F608DFF9ECFAA9F0C5
:1004A300EDFB2289828A83ECFAE0A3C8C582C8CC1B
:1004B300C583CCF0A3C8C582C8CCC583CCDFEADE34
:1004C300E880DB89828A83E493A3F208DFF980CC96
:1004D30088F0EF60010E4E60C388F0ED2402B4048F
:1004E3000050B9F582EB2402B4040050AF23234536
:0604F30082239004537304
:1004F900BB010689828A83E0225002E722BBFE0201
:09050900E32289828A83E4932233
:10009E00E5082421F582E43401F583E00508229079
:1000AE00011E300703900121E475F0011205510283
:1000BE0004F92000E97F2ED2008018EF540F24900F
:1000CE00D43440D4FF30040BEF24BFB41A005003D5
:1000DE002461FFE50960021509050CE50C700205A7
:1000EE000B30070E90011EE475F001120551EF0260
:1000FE00053F0215E17403D2078003E4C207F50839
:10010E0090011E120568E4F509F50BF50CE5096082
:10011E00077F201200E180F5750AFFC201C200C2FE
:10012E0002C203C205C206C2081200ADFF700D3036
:10013E0007057F001200F2AF0CAE0B22B4255FC292
:10014E00D5C2041200ADFF24D0B40A00501A75F0C7
:10015E000A780930D50508B6FF0106C6A426F62092
:10016E00D5047002D20380D924CFB41A00EF500404
:10017E00C2E5D2040202F3D20180C6D20080C0D200
:10018E000280BCD2D580BAD20580B47F201200E1A5
:10019E002002077401B5090040F112009EFF120003
:1001AE00E102011BD208D206809512009EFB1200BE
:1001BE009EFA12009EF94A4B700679C47A037BFFB1
:1001CE0020022EE509602A7E008E827583001205BC
:1001DE001260060EEE650A70F0C2D5EBC0E0EAC002
:1001EE00E0E9C0E0EE12033AD0E0F9D0E0FAD0E058
:1001FE00FB1204F9FF60AAEBC0E0EAC0E0E9C0E040
:10020E001200E1D0E02401F9D0E03400FAD0E0FB96
:10021E00E50A0460DCD50AD980877BFF7A0379363C
:10022E00D202809C791080027908C206C20880082A
:10023E00D2D5790A8004790AC2D5E50A047002F58E
:10024E000AE4FAFDFEFF12009EFC7B082001131249
:10025E00009EFD7B1030000A12009EFE12009EFFD3
:10026E007B20EC3382D592D55013C3E43000069F29
:10027E00FFE49EFEE42001039DFDE49CFCE4CBF82C
:10028E00C201EC700CCFCECDCCE824F8F870F38020
:10029E0017C3EF33FFEE33FEED33FDEC33FCEB33E0
:1002AE00FB994002FB0FD8E9EB300105F8D0E0C412
:1002BE0048B201C0E00AEC4D4E4F78207B0070C270
:1002CE00EAB50A0040BCC0E012033CD0F0D0E020FA
:1002DE000104C4C0E0C4B201C0F01200CAD0F0D50F
:1002EE00F0EB02011B12057101B85302325801895D
:1002FE004C01854202364F023E44023E49019E4366
:08030E000244550228460228B2
:100316004502284703E450018D2D01912E01B42B8F
:1003260001952301B22003CD2A014D48000001ACFE
:100336003F3F3F00790AA2D5200314300509B910C2
:10034600020404B9080104A2D520060250010420C3
:1003560002689202B509005034C0E07F20300319CC
:100366007F30A20272067205500F120393C202C2B8
:1003760006C205C2087F30800F300503E9C0E012CF
:1003860000E1300503D0E0F9D0E0B509CC3005171F
:100396007F30B9100C1200E17F583004077F788057
:1003A60003B908031200E13002057F2D0200E17F48
:1003B600202008F87F2B2006F322920280CF286E99
:1003C600756C6C2900D20112009E3001F8C20178CA
:1003D6000930D50108F602014D2D50434958120047
:1003E6009E2403B405004001E49003DF931200D27B
:0D03F600743A1200D2D203750904020232DB
:10051200BB010CE58229F582E5833AF583E022509E
:1005220006E92582F8E622BBFE06E92582F8E222E8
:0D053200E58229F582E5833AF583E4932202
:10053F00BB010689828A83F0225002F722BBFE019B
:02054F00F32295
:10055100F8E0FBA3A3E0F925F0F0E5821582700233
:070561001583E0FA38F022D7
:09056800EBF0A3EAF0A3E9F02294
:10057100D083D082F8E4937012740193700DA3A319
:1005810093F8740193F5828883E47374029368602D
:06059100EFA3A3A380DF2D
:00000001FF
