:10147100D3EF9400EE9400401600000075080B7540
:0F14810009BED509FDD508FAEF1F70E41E80E102
:011490002239
:1015B900D3EF9400EE9400400A000000EF1F70F092
:0415C9001E80ED2271
:1015260043BC807F0A7E0012147153DEFC43DE0C3E
:0A15360053BCDF53A8DF43DE202280
:10145000E4FDFC53BCF0EF444042BCE5BC30E5FB8E
:1014600053BCDF53BCBFAFBDEFADBEFCEDAE04FF60
:011470002259
:0D000E00E4F5C7F5C5F5C675C380F5C4223D
:1014D00075C78075F50C75C5038FC4EEF5C375C669
:0E14E0005A75C6A57F0A7E0012147102000E16
:10142E0075C78075F50C75C5028FC4EEF5C3AF0593
:10143E008FC275C65A75C6A57F0A7E001214710238
:02144E00000E8E
:1014910075C78075F50C75C5018FC4EEF5C375C6AA
:1014A1005A75C6A57F0A7E00121471AFC202000EE2
:1014B100759418E4F593F5927591F875960EF59576
:0F14C10075B2C2F5B175B48EF5B3F5CAF5C9228F
:1013E0003D3D3D3D2053573030332D323032353185
:1013F00032323920636F6465207374617274203DEA
:071400003D3D3D200D0A00F7
:1012660043BA801214B112155A1215261215A3127A
:1012760015731215CD1212F012138A1200061215EA
:10128600FB1215E0D2AF121164900237E07005121E
:10129600101A80F57BFF7A1379E012010912140700
:0B12A60012101A120D7B12109080F243
:1012F00043BA8090FEB6E0F090FEEDE4F090FEEA96
:101300007470F0A3F090FEED7411F090FEF274048E
:10131000F0A37451F090FEF0E4F0A37431F090FE6D
:0D132000B5E04450F090FEE0E04401F02202
:05000600D288D2A822FF
:1015CD00438E805389F0758ACD758CD4C28DD28CA3
:0315DD00D2A9226E
:0A15FB00538EBF53890F438910225D
:1015E00053D1FDE4F5D575D4DC43D10843AF2022B7
:10155A0053A23F759850438E01438E0475D7E875A0
:09156A00D6FF438E1075A8102273
:1015A30075841043844043D12075D3E875D2FF433B
:0615B300D18043AF1022BD
:0408B70041010600F5
:10157300E4900000F0900081F0900101F0F0A3F0FE
:09158300A3F0A3F0A3F0C284223E
:03009300020F2336
:100F2300C0E0C083C082C0D075D000C007E5843064
:100F3300E12A5384FD900101E0601AA3E0FF04F06D
:100F430074012FF582E43400F583E0F58590010107
:100F5300E014F08007900102E4F0C284E58430E0FD
:100F6300335384FE900000E07021900105E0D39498
:100F7300804002E4F0900105E02481F582E434002E
:100F8300F583E585F0900105E004F0900103E4F0BA
:0F0F9300A37405F0D007D0D0D082D083D0E03245
:03000B000212B12D
:1012B100C0E0C083C082C0D0900103E07002A3E00F
:1012C1006024900104E024FFF0900103E034FFF07A
:1012D100E07002A3E0700F900105E0D39400400696
:0F12E1009000007401F0D0D0D082D083D0E032E2
:030023000214EED6
:1014EE00C0E0C083C082309907C299900106E4F033
:0C14FE00309802C298D082D083D0E03237
:0B15F0008F99900106E070FA04F022D1
:101164007F107E00121491EF645860449002417421
:1011740007F0E4A3F0A37403F0A37432F0A3745053
:10118400F0E490020AF090020AE0FFC394055015BF
:10119400C2C7EF04900240F0120FA2D2C790020A15
:1011A400E004F080E19002407401F01215408003E5
:0C11B40012121690023B7478F002132D0A
:10154000E4FFFE1214D0900240E0FDE4FFFE12140E
:0A1550002E7D587F107E0002142E3D
:10121600E4FFFE121491900240EFF0E075F002A494
:1012260090020DF0A3E4F090020CF090020DE0FEA7
:10123600A3E0FF12149190020CE0246CF582E434D2
:1012460002F583EFF090020EE004F0700690020DB6
:0F125600E004F090020CE004F0E0C3940540CCFB
:011265002266
:100FA200900241E090026CF0900242E090026DF0FB
:100FB200900243E090026EF0900244E090026FF0E3
:100FC200900245E0900270F0900240E075F002A4B9
:100FD2007F00FE90020DF0A3EFF01214D0E4900215
:100FE2000CF090020CE0FDC39405502BA3E0FEA38D
:100FF200E0FF746C2DF582E43402F583E0FD1214F7
:101002002E90020EE004F0700690020DE004F090C3
:07101200020CE004F080CBAA
:0110190022B4
:10132D0090026CE0900241F090026DE0900242F06C
:10133D0090026EE0900243F012150A90026FE09059
:0F134D000244F012158C900270E0900245F022DD
:1008BB0060FC010E03D503FA04200446046D049575
:1008CB0004BE04E70510053A0565059005BB05E771
:1008DB000613063F066C069906C606F30720074D5E
:1008EB00077A07A707D40800082D0859088508B10F
:1008FB0008DC09070931095B098409AD09D609FD33
:10090B000A240A4B0A710A960ABB0ADE0B020B2455
:10091B000B460B670B870BA70BC60BE40C020C1ECD
:10092B000C3A0C560C700C8A0CA40CBC0CD40CECB2
:10093B000D020D190D2E0D430D570D6B0D7E0D90E8
:10094B000DA20DB40DC50DD50DE50DF50E040E1252
:10095B000E200E2E0E3B0E480E550E610E6D0E78B0
:10096B000E830E8D0E970EA10EAB0EB40EBD0EC6E2
:10097B000ECF0ED70EDF0EE70EEF0EF60EFD0F04A9
:10098B000F0B0F110F170F1D0F230F290F2F0F35E4
:10099B000F3A0F3F0F440F490F4E0F530F580F5C79
:1009AB000F600F650F690F6D0F710F740F780F7C50
:0E0E980090020EEBF0A3EAF0A3E9F0A3EDF058
:100EA600E4900215F0A3F0900214F0900211E01401
:100EB600FF900214E0FEC39F505A90020EE0FBA37F
:100EC600E0FAA3E0F975F002EEA4F58285F083124C
:100ED6000567FF900212E0FCA3E0FDC39FEC95F0CE
:100EE600402AA3E02401FFE433FEEF25E0FFEE33C2
:100EF600FE8F828E83120567FFC3ED9FEC95F0503F
:100F06000B900214E0FFA3E4F0A3EFF0900214E0CC
:0C0F160004F08097900215E0FEA3E0FFBD
:010F220022AC
:0511030090020AEFF06C
:10110800E490020CF0A3F090020BF090020AE0FFCA
:1011180012145090020DE02FF090020CE03EF09077
:10112800020BE004F0E0C3940A40E090020CE0FEF9
:10113800A3E0FF7C007D0A12051290020CEEF0A3DA
:10114800EFF07B017A01790E90020CE0FFA3E090AA
:0C1158000212CFF0A3EFF07D7E020E9893
:0409BB0041023200C3
:10138A00E4900238F090010BF0C2B6D2C79002374F
:10139A00F0900235F0900234F0900233F090023669
:0C13AA00F090023974F1F0A37404F022FA
:0300030002135C89
:10135C00C0E0C083C082C0D075D000C006900239F6
:10136C00E0FEA3E0F58BEEF58D9002387401F0D21F
:0E137C008ED2ABD006D0D0D082D083D0E0325B
:03001B000211C00F
:1011C000C0E0C083C082C0D075D000C00790023894
:1011D000E06401702CF0900233E0FFC374019F249F
:1011E000FF92C1A3E0FFC374019F24FF92C2A3E05A
:1011F000FFC374019F24FF92C3758BF7758DFF8029
:101200000AD2C3D2C2D2C1C28EC2ABD007D0D0D014
:0612100082D083D0E03221
:10158C00900244E075F04AA42490FEE5F034E29019
:07159C000239F0A3CEF0229A
:10150A00900243E075F0B8A4FFAEF090FEFBEEF057
:0C151A00A3EFF090FEF9EEF0A3EFF0223A
:1010900090010BE06401706A7F0412110390010754
:1010A000EFF0C3942D4004D2B68002C2B690023B4A
:1010B000E0FF900107E0FEC39F400B90023F7401E8
:1010C000F0E490023EF090023BE024FBFFEEC39F71
:1010D000502BE490023FF0900245E0FF900107E0C2
:1010E000C39F400690023E7401F0EF24FEFF900182
:1010F00007E0C39F5007E490023EF0D2C7E490019E
:031100000BF022CF
:0916050012154012121602132DF9
:1014070090023CE0FF900232E06F601AEFF090022A
:1014170042E0B4010A900232E070047F0180027F4B
:061427000090023DEFF011
:01142D00229C
:100D7B00900237E0640170651213B6900241E054A3
:100D8B00015F60047F0180027F00900233EFF0125D
:100D9B0013B6900241E054025F60047F0180027F32
:100DAB0000900234EFF01213B6900241E054045F4E
:100DBB0060047F0180027F00900235EFF0900242C9
:100DCB00E0600D90023CE064016005A3E0B4010417
:100DDB007F0180027F00900236EFF08011E49002D9
:100DEB0036F0900235F0900234F0900233F090021E
:100DFB0036E0B401047F8080027F0090FEFDEFF0AF
:010E0B0022C4
:1013B60090023BE0FF900107E0C39F40037F0022BD
:1013C600900244E07002FF22900242E0B4010890CD
:0A13D600023CE07002FF227F0122BA
:1009BF00410261004102620042026300004202658F
:1009CF00000042026700004102690142026A000012
:03009B0002062436
:0F062400C0E0C083C082C0D075D000C006C00740
:10063300209319900261E004F0A3E4F0900261E0DA
:10064300B4051FE4F090023C04F08016900262E0CF
:1006530004F0900261E4F0A3E0B40506E4F0900234
:100663003CF090010BE07025900264E004F070060A
:10067300900263E004F0900263E07004A3E064641A
:10068300700B900263F0A3F090010B04F090023E14
:10069300E0B40133900266E004F07006900265E076
:1006A30004F0900265E07004A3E0643270199002D4
:1006B30069E0FFC374019FF07004C2C78002D2C710
:1006C300900265E4F0A3F090023FE064017064904F
:1006D3000268E004F07006900267E004F09002679D
:1006E300E07004A3E064C87007900267F0A304F00D
:1006F300900267E0FEA3E0FFC39414EE9400400968
:10070300D3EF9427EE94004024C3EF943CEE94007F
:100713004009D3EF944FEE94004012C3EF9464EE7C
:100723009400400DD3EF9477EE94005004C2C78039
:1007330002D2C790023DE0B4012B90026BE004F0BB
:10074300700690026AE004F090026AE0B4051DA30B
:10075300E0B4DC1890026AE4F0A3F0900236F09063
:0C076300023DF0800790026AE4F0A3F071
:0D076F00D007D006D0D0D082D083D0E032A9
:10101A00900000E06401706D7B017A007981900193
:10102A0005E024FEFD12002EAD07AC06900105E096
:10103A00FB247FF582E43400F583E0FE74802BF50F
:10104A0082E43400F583E0FBEBFFB5052FECB5062F
:10105A002B900081E0B40224A3E024FC601124FE5A
:10106A00601224F66013240D70121209E0800D122A
:10107A00077C8008120CD08003120AE3E490000077
:05108A00F0900105F0EB
:01108F00223E
:1009E0009002527403F0900083E0FEA3E0FDEDFF5F
:1009F000900253EEF0A3EFF0900085E0FEA3E0FD3F
:100A0000EDFF900255EEF0A3EFF09000017401F0BD
:100A1000A37403F0EF25E0A3F0900253E0FEA3E0FF
:100A2000FF900255E0FCA3E0FD900254E02DFD9004
:100A30000253E03CFCC3EF9DEE9C4003020AD4E469
:100A4000900251F0900250F0EE7053EF14601A14BF
:100A5000602114602814602F1460362405703FE470
:100A6000900250F09002418030E4900250F09002E9
:100A7000428026E4900250F0900243801CE49002F1
:100A800050F09002448012E4900250F090024580B1
:100A900008E4900250F0900240E0900251F0900281
:100AA00050E0FD900252E0FC04F074012CF582E469
:100AB0003400F583EDF0900251E0FDA3E0FC04F07A
:100AC00074012CF582E43400F583EDF00FBF0001D2
:100AD0000E020A21900255A3E025E02403FD7F03C6
:030AE000020BE323
:10077C009002527403F0900083E0FEA3E0FDEDFFC5
:10078C00900257EEF0A3EFF0900085E0FEA3E0FDA1
:10079C00EDFF900259EEF0A3EFF09000017401F020
:1007AC00A37404F0EF25E0A3F0900257E0FEA3E061
:1007BC00FF900259E0FCA3E0FD900258E02DFD9063
:1007CC000257E03CFCC3EF9DEE9C40030208A8E4FA
:1007DC00900251F0900250F0EE6003020872EFB4F8
:1007EC00090040030208729007FAF82828730208DF
:1007FC001502081F02082902083302083D020847A7
:10080C0002085102085B020865E4900250F0900265
:10081C003E804EE4900250F090023C8044E4900202
:10082C0050F0900241803AE4900250F090024280E5
:10083C0030E4900250F09002438026E4900250F095
:10084C00900244801CE4900250F09002458012E427
:10085C00900250F09002408008E4900250F0900218
:10086C0037E0900251F0900250E0FD900252E0FC13
:10087C0004F074012CF582E43400F583EDF0900261
:10088C0051E0FDA3E0FC04F074012CF582E434008B
:10089C00F583EDF00FBF00010E0207BD900259A3C6
:0B08AC00E025E02403FD7F04020BE3C5
:100CD000C2C7900083E0FEA3E0FDEDFF90025FEE4F
:100CE000F0A3EFF0900085E0900250F0900086E0D5
:100CF000900251F090025FE0FEA3E0FFEE706FEF14
:100D0000B407005069900D0CF8282873020D2102D9
:100D10000D2B020D35020D42020D4F020D59020D31
:100D200066900251E0900241F08043900251E090C1
:100D30000242F08039900251E0900243F012150A0D
:100D4000802C900251E0900244F012158C801F908C
:100D50000251E0900245F08015900086E09002403C
:100D6000F01216058008900086E0900237F07D08AA
:0B0D70007F06120BE3120FA2D2C72275
:100AE300C2C79002527407F0900083E0FEA3E0FDBA
:100AF300EDFF90025BEEF0A3EFF0900086E0FEA323
:100B0300E0FDEDFF90025DEEF0A3EFF0900252E006
:100B1300FF90020AE4F0A3EFF0900252E0FFFD9091
:100B2300025EE02DFD90025DE03400FC90020AE0DD
:100B3300FAA3E0FBC39DEA9C4003020BD674812F0A
:100B4300F582E43400F583E0900250F0900252E025
:100B53002482F582E43400F583E0900251F0EA70D8
:100B630057EB14601A14602114602B146035146061
:100B73003C24057043900251E0900241F08039908B
:100B83000251E0900242F0802F900251E090024324
:100B9300F012150A8022900251E0900244F01215DF
:100BA3008C8015900251E0900245F0800B90025129
:100BB300E0900240F0121605900252E02402F090F9
:100BC300020BE004F06003020B1C90020AE004F045
:0F0BD300020B1C7D087F10120BE3120FA2D2C77A
:010BE20022F0
:050BE30090020CEDF092
:100BE800EF24FC601224FE605324F67003020C8785
:100BF800240D6003020CBD7B017A00790190020C80
:100C0800E0FD12002E90020DEEF0A3EFF090020D21
:100C1800E0FEA3E0FD90020CE0FC2402F582E4343F
:100C280000F583EDF0EEFF74012CF582E43400F555
:100C380083EFF090020CE02402020CB978017C00EA
:100C48007D017B017A0079817E007F061204D390B2
:100C58000004E0B405069000017401F0120026902B
:100C6800020DEEF0A3EFF090020DE0FEA3E090007D
:100C780008F0EE900007F09001017408F0803678D3
:100C8800017C007D017B017A0079817E007F06125C
:100C980004D312002690020DEEF0A3EFF090020D9F
:100CA800E0FEA3E0900008F0EE900007F090020C40
:100CB800E0900101F0D2847F027E00121471438417
:080CC800027F017E000214719D
:080026007B017A0079017D06DF
:05002E0090020FEDF04F
:1000330074FFA3F0A3F01204F9FF900210E0F0A301
:10004300E06FF0E4FD900210E0FEA3E0FF30E01962
:10005300EEC313FEEF13FFEE64A0FEEF6401FF9007
:100063000210EEF0A3EFF0800B900210E0C313F048
:10007300A3E013F00DEDB408CC740129F9E43AFAC6
:0E00830090020FE014F070AEA3E0FEA3E0FFC9
:01009100224C
:03000000020E0CE1
:0C0E0C00787FE4F6D8FD758121020E53BA
:10040300E709F608DFFA8046E709F208DFFA803EDB
:1004130088828C83E709F0A3DFFA8032E309F608C8
:10042300DFFA8078E309F208DFFA807088828C8330
:10043300E309F0A3DFFA806489828A83E0A3F608E4
:10044300DFFA805889828A83E0A3F208DFFA804CBE
:1004530080D280FA80C680D4806980F28033801095
:1004630080A680EA809A80A880DA80E280CA8033FE
:1004730089828A83ECFAE493A3C8C582C8CCC58376
:10048300CCF0A3C8C582C8CCC583CCDFE9DEE78046
:100493000D89828A83E493A3F608DFF9ECFAA9F0C5
:1004A300EDFB2289828A83ECFAE0A3C8C582C8CC1B
:1004B300C583CCF0A3C8C582C8CCC583CCDFEADE34
:1004C300E880DB89828A83E493A3F208DFF980CC96
:1004D30088F0EF60010E4E60C388F0ED2402B4048F
:1004E3000050B9F582EB2402B4040050AF23234536
:0604F30082239004537304
:1004F900BB010689828A83E0225002E722BBFE0201
:09050900E32289828A83E4932233
:10051200BC000BBE0029EF8DF084FFADF022E4CCCD
:10052200F875F008EF2FFFEE33FEEC33FCEE9DEC96
:10053200984005FCEE9DFE0FD5F0E9E4CEFD22EDDC
:10054200F8F5F0EE8420D21CFEADF075F008EF2F26
:10055200FFED33FD4007985006D5F0F222C398FD17
:050562000FD5F0EA22B4
:10056700BB0110E58229F582E5833AF583E0F5F0D2
:10057700A3E0225009E92582F886F008E622BBFEAF
:100587000AE92582F8E2F5F008E222E5832AF583F5
:08059700E993F5F0A3E99322BA
:10009E00E508240DF582E43402F583E0050822908C
:1000AE00020A30070390020DE475F0011205DE021C
:1000BE0004F92000E97F2ED2008018EF540F24900F
:1000CE00D43440D4FF30040BEF24BFB41A005003D5
:1000DE002461FFE50960021509050CE50C700205A7
:1000EE000B30070E90020AE475F0011205DEEF02E6
:1000FE0005CC0215F07403D2078003E4C207F5089D
:10010E0090020A1205F5E4F509F50BF50CE5096008
:10011E00077F201200E180F5750AFFC201C200C2FE
:10012E0002C203C205C206C2081200ADFF700D3036
:10013E0007057F001200F2AF0CAE0B22B4255FC292
:10014E00D5C2041200ADFF24D0B40A00501A75F0C7
:10015E000A780930D50508B6FF0106C6A426F62092
:10016E00D5047002D20380D924CFB41A00EF500404
:10017E00C2E5D2040202F3D20180C6D20080C0D200
:10018E000280BCD2D580BAD20580B47F201200E1A5
:10019E002002077401B5090040F112009EFF120003
:1001AE00E102011BD208D206809512009EFB1200BE
:1001BE009EFA12009EF94A4B700679C47A037BFFB1
:1001CE0020022EE509602A7E008E827583001205BC
:1001DE009F60060EEE650A70F0C2D5EBC0E0EAC075
:1001EE00E0E9C0E0EE12033AD0E0F9D0E0FAD0E058
:1001FE00FB1204F9FF60AAEBC0E0EAC0E0E9C0E040
:10020E001200E1D0E02401F9D0E03400FAD0E0FB96
:10021E00E50A0460DCD50AD980877BFF7A0379363C
:10022E00D202809C791080027908C206C20880082A
:10023E00D2D5790A8004790AC2D5E50A047002F58E
:10024E000AE4FAFDFEFF12009EFC7B082001131249
:10025E00009EFD7B1030000A12009EFE12009EFFD3
:10026E007B20EC3382D592D55013C3E43000069F29
:10027E00FFE49EFEE42001039DFDE49CFCE4CBF82C
:10028E00C201EC700CCFCECDCCE824F8F870F38020
:10029E0017C3EF33FFEE33FEED33FDEC33FCEB33E0
:1002AE00FB994002FB0FD8E9EB300105F8D0E0C412
:1002BE0048B201C0E00AEC4D4E4F78207B0070C270
:1002CE00EAB50A0040BCC0E012033CD0F0D0E020FA
:1002DE000104C4C0E0C4B201C0F01200CAD0F0D50F
:1002EE00F0EB02011B1205FE01B8530232580189D0
:1002FE004C01854202364F023E44023E49019E4366
:08030E000244550228460228B2
:100316004502284703E450018D2D01912E01B42B8F
:1003260001952301B22003CD2A014D48000001ACFE
:100336003F3F3F00790AA2D5200314300509B910C2
:10034600020404B9080104A2D520060250010420C3
:1003560002689202B509005034C0E07F20300319CC
:100366007F30A20272067205500F120393C202C2B8
:1003760006C205C2087F30800F300503E9C0E012CF
:1003860000E1300503D0E0F9D0E0B509CC3005171F
:100396007F30B9100C1200E17F583004077F788057
:1003A60003B908031200E13002057F2D0200E17F48
:1003B600202008F87F2B2006F322920280CF286E99
:1003C600756C6C2900D20112009E3001F8C20178CA
:1003D6000930D50108F602014D2D50434958120047
:1003E6009E2403B405004001E49003DF931200D27B
:0D03F600743A1200D2D203750904020232DB
:100E1800021266E493A3F8E493A34003F68001F278
:100E280008DFF48029E493A3F85407240CC8C333DB
:100E3800C4540F4420C8834004F456800146F6DFAA
:100E4800E4800B01020408102040809008B7E47E7B
:100E5800019360BCA3FF543F30E509541FFEE4939F
:100E6800A360010ECF54C025E060A840B8E493A366
:100E7800FAE493A3F8E493A3C8C582C8CAC583CA91
:100E8800F0A3C8C582C8CAC583CADFE9DEE780BE49
:0109DF000017
:10059F00BB010CE58229F582E5833AF583E0225011
:1005AF0006E92582F8E622BBFE06E92582F8E2225B
:0D05BF00E58229F582E5833AF583E4932275
:1005CC00BB010689828A83F0225002F722BBFE010E
:0205DC00F32208
:1005DE00F8E0FBA3A3E0F925F0F0E58215827002A6
:0705EE001583E0FA38F0224A
:0905F500EBF0A3EAF0A3E9F02207
:1005FE00D083D082F8E4937012740193700DA3A38C
:10060E0093F8740193F5828883E47374029368609F
:06061E00EFA3A3A380DF9F
:00000001FF
