:10139600D3EF9400EE9400401600000075080B751C
:0F13A60009BED509FDD508FAEF1F70E41E80E1DE
:0113B5002215
:1014E000D3EF9400EE9400400A000000EF1F70F06C
:0414F0001E80ED224B
:10144B0043BC807F0A7E0012139653DEFC43DE0CF6
:0A145B0053BCDF53A8DF43DE20225C
:10137500E4FDFC53BCF0EF444042BCE5BC30E5FB6A
:1013850053BCDF53BCBFAFBDEFADBEFCEDAE04FF3C
:011395002235
:0D000E00E4F5C7F5C5F5C675C380F5C4223D
:1013F50075C78075F50C75C5038FC4EEF5C375C645
:0E1405005A75C6A57F0A7E0012139602000ECD
:1013310075C78075F50C75C5028FC4EEF5C3AF0591
:101341008FC275C65A75C6A57F0A7E001213960212
:02135100000E8C
:1013B60075C78075F50C75C5018FC4EEF5C375C686
:1013C6005A75C6A57F0A7E00121396AFC202000E9A
:1013D600759418E4F593F5927591F875960EF59552
:0F13E60075B2C2F5B175B48EF5B3F5CAF5C9226B
:1012E9003D3D3D3D3D3D3D3D3D3D20636F646520B8
:1012F9007374617274203D3D3D3D3D3D3D3D3D3D35
:04130900200D0A00A9
:100CC10043BA801213D612147F12144B1214CA1293
:100CD100149812150812127E1213531200061215DF
:100CE1003612151BD2AF120A6590FEFDE4F0C2A8C0
:100CF100C2B6D2C7900241E0700512107F80F57B29
:100D0100FF7A1279E9120109900243E0B4011C90C3
:100D11000241E0B4010312130D900241E07006900C
:100D2100FEFDF0C2A812107F1211A4900243E070E0
:100D31000C90024504F0E4900244F080CBE4900270
:100D410045F0900242E0B401089002447401F08041
:0A0D5100B7E4900244F0D2C780AE70
:10127E0043BA8090FEB6E0F090FEEDE4F090FEEA08
:10128E007470F0A3F090FEED7411F090FEF2740401
:10129E00F0A37451F090FEF0E4F0A37431F090FEE0
:0D12AE00B5E04450F090FEE0E04401F02275
:05000600D288D2A822FF
:10150800438E805389F0758ACD758CD4C28DD28C68
:03151800D2A92233
:0A153600538EBF53890F4389102222
:10151B0053D1FDE4F5D575D4DC43D10843AF20227C
:10147F0053A23F759850438E01438E0475D7E8757C
:09148F00D6FF438E1075A810224F
:1014CA0075841043844043D12075D3E875D2FF4315
:0614DA00D18043AF102297
:040624004101070089
:10149800E4900000F0900081F0900101F0F0A3F0DA
:0914A800A3F0A3F0A3F0C284221A
:03009300020F88D1
:100F8800C0E0C083C082C0D075D000C007E58430FF
:100F9800E12A5384FD900101E0601AA3E0FF04F008
:100FA80074012FF582E43400F583E0F585900101A2
:100FB800E014F08007900102E4F0C284E58430E098
:100FC800335384FE900000E07021900105E0D39433
:100FD800804002E4F0900105E02481F582E43400C9
:100FE800F583E585F0900105E004F0900103E4F055
:0F0FF800A37405F0D007D0D0D082D083D0E032E0
:03000B0002123F9F
:10123F00C0E0C083C082C0D0900103E07002A3E081
:10124F006024900104E024FFF0900103E034FFF0EC
:10125F00E07002A3E0700F900105E0D39400400608
:0F126F009000007401F0D0D0D082D083D0E03254
:03002300021413B1
:10141300C0E0C083C082309907C299900107E4F00D
:0C142300309802C298D082D083D0E03212
:0B152B008F99900107E070FA04F02295
:100A65007F107E001213B6EFF46003020B3B900279
:100A7500377407F0120D5BE4900238F012130D90F5
:100A850002397403F0FF1214B190023A7432F0FF88
:100A95001214F490023B7450F0900237E090025823
:100AA500F0900238E0900259F0900239E090025A35
:100AB500F090023AE090025BF0A37450F0E49002EB
:100AC5000CF090020CE0FFC394055061C2C7EF24FF
:100AD50001FFE433FEEF25E0FFEE33EF7F00FEA3D9
:100AE500F0A3EFF01213F5E490020BF090020BE087
:100AF500FDC39405502F90020DE0FEA3E0FF74584E
:100B05002DF582E43402F583E0FD12133190020ED7
:100B1500E004F0700690020DE004F0D2C790020BDD
:100B2500E004F080C790020CE004F0809590023C50
:090B35007401F0021465120F02B4
:010B3E002294
:10146500E4FFFE1213F590023CE0FDE4FFFE1213CB
:0A147500317D587F107E0002133114
:10100700900237E0900258F0900238E0900259F0D1
:10101700900239E090025AF090023AE090025BF0B9
:1010270090023BE090025CF090023CE075F002A475
:101037007F00FE90020EF0A3EFF01213F5E490028A
:101047000DF090020DE0FDC39405502BA3E0FEA325
:10105700E0FF74582DF582E43402F583E0FD1213A6
:101067003190020FE004F0700690020EE004F09059
:07107700020DE004F080CB44
:01107E00224F
:100F0200E4FFFE1213B690023CEFF0E075F002A48B
:100F1200900210F0A3E4F090020FF0900210E0FEB5
:100F2200A3E0FF1213B690020FE02458F582E434D6
:100F320002F583EFF0900211E004F07006900210C7
:100F4200E004F090020FE004F0E0C3940540CC907E
:100F52000258E0900237F0120D5B900259E09002C5
:100F620038F012130D90025AE0FF900239F0121479
:100F7200B190025BE0FF90023AF01214F490025C2E
:050F8200E090023BF0CD
:010F87002247
:1006280060FC010F03D503FA04200446046D049509
:1006380004BE04E70510053A0565059005BB05E706
:100648000613063F066C069906C606F30720074DF3
:10065800077A07A707D40800082D0859088508B1A4
:1006680008DC09070931095B098409AD09D609FDC8
:100678000A240A4B0A710A960ABB0ADE0B020B24EB
:100688000B460B670B870BA70BC60BE40C020C1E63
:100698000C3A0C560C700C8A0CA40CBC0CD40CEC48
:1006A8000D020D190D2E0D430D570D6B0D7E0D907E
:1006B8000DA20DB40DC50DD50DE50DF50E040E12E8
:1006C8000E200E2E0E3B0E480E550E610E6D0E7846
:1006D8000E830E8D0E970EA10EAB0EB40EBD0EC678
:1006E8000ECF0ED70EDF0EE70EEF0EF60EFD0F043F
:1006F8000F0B0F110F170F1D0F230F290F2F0F357A
:100708000F3A0F3F0F440F490F4E0F530F580F5C0E
:100718000F600F650F690F6D0F710F740F780F7CE5
:0E0E770090020FEBF0A3EAF0A3E9F0A3EDF078
:100E8500E4900216F0A3F0900215F0900212E0141F
:100E9500FF900215E0FEC39F505A90020FE0FBA39E
:100EA500E0FAA3E0F975F002EEA4F58285F083126D
:100EB5000567FF900213E0FCA3E0FDC39FEC95F0EE
:100EC500402AA3E02401FFE433FEEF25E0FFEE33E3
:100ED500FE8F828E83120567FFC3ED9FEC95F05060
:100EE5000B900215E0FFA3E4F0A3EFF0900215E0EC
:0C0EF50004F08097900216E0FEA3E0FFDE
:010F010022CD
:0510ED0090020BEFF082
:1010F200E490020DF0A3F090020CF090020BE0FFDE
:1011020012137590020EE02FF090020DE03EF09067
:10111200020CE004F0E0C3940A40E090020DE0FE0D
:10112200A3E0FF7C007D0A12051290020DEEF0A3EF
:10113200EFF07B017A01790F90020DE0FFA3E090BE
:0C1142000213CFF0A3EFF07D7E020E77C9
:040728004102330156
:10135300E4900234F090010CF0D2C3D2C2D2C19017
:101363000241F0A3F0A304F0E4A3F0A3F0A3F0A3DD
:02137300F02266
:030003000212BB2B
:1012BB00C0E0C083C082C0D075D000C0069002359C
:1012CB00E0FEA3E0F58BEEF58D9002347401F0D2C5
:0E12DB008ED2ABD006D0D0D082D083D0E032FD
:03001B0002114E81
:10114E00C0E0C083C082C0D075D000C0079002340A
:10115E00E06401702CF090023EE0FFC374019F2406
:10116E00FF92C1A3E0FFC374019F24FF92C2A3E0CC
:10117E00FFC374019F24FF92C3758BF7758DFF809B
:10118E000AD2C3D2C2D2C1C28EC2ABD007D0D0D087
:06119E0082D083D0E03294
:1014F400EF75F04AA42490FEE5F034E2900235F052
:04150400A3CEF02260
:1014B100AD07ED75F0B8A4FFAEF090FEF9EEF0A324
:0914C100EFF0A3EEF0A3EFF0221E
:10130D00900238E0B4010F12142F90023DE0B401A9
:10131D00028003C2A822D2A890FEFD7480F0E49052
:04132D000246F02262
:1011A40090010CE0640170497F041210ED90010875
:1011B400EFF0C3942D4002D2B6900108E0FFD3941F
:1011C400235002C2B690023BE0FEEFC39E4008905B
:1011D40002427401F08005E4900242F0900108E0BC
:1011E400C394784007C2A8E4900243F0E490010C51
:0211F400F022E7
:100D5B00900237E014B407004003020DEA900D76C1
:100D6B0075F003A4C58325F0C58373020D8B020DAB
:100D7B009B020DA5020DB1020DC1020DCF020DDCC0
:100D8B0090023E7401F0E4900240F090023FF0229A
:100D9B0090023F7401F0E4A380409002407401F094
:100DAB00E490023F803490023F7401F090023EF0D9
:100DBB00E4900240F0229002407401F090023EF069
:100DCB00E4A3F0229002407401F090023FF0E48023
:100DDB000A9002407401F090023FF090023EF02224
:10142F0090023DE0FF900233E06F600FEFF0700627
:0B143F0090024604F022E4900246F008
:01144A00227F
:10072C00420248000042024A000042024C000041D2
:08073C00024E0142024F0000D1
:03009B0002074514
:0F074500C0E0C083C082C0D075D000C006C0071E
:1007540090023D2093057401F08002E4F090010CB6
:10076400E07026900249E004F07006900248E0042C
:10077400F0900248E07004A3E06464700C90010CF3
:1007840004F0900248E4F0A3F0900244E0B4013392
:1007940090024BE004F0700690024AE004F09002EC
:1007A4004AE07004A3E06432701990024EE0FFC383
:1007B40074019FF07004C2C78002D2C790024AE459
:1007C400F0A3F0900245E06401705190024DE00402
:1007D400F0700690024CE004F090024CE0FEA3E0BE
:1007E400FF64144E7002C2C7EF64284E7002D2C771
:1007F400EF643C4E7002C2C7EF64504E7002D2C721
:10080400EF64644E7002C2C7EF64784E7002D2C7C0
:10081400EF64C84E700690024CF0A3F0900246E0DC
:10082400B4012B900250E004F0700690024FE004F3
:10083400F090024FE0B4051DA3E0B4DC1890FEFD77
:10084400E4F090024FF0A3F0900246F0800790028B
:050854004FE4F0A3F0E9
:0D085900D007D006D0D0D082D083D0E032BE
:10107F00900000E064017065F07B017A0079819047
:10108F000105E024FEFD120026AD07AC0690010518
:10109F00E0FB247FF582E43400F583E0FE74802BBF
:1010AF00F582E43400F583E0FBEBFFE4900105F0FB
:1010BF00EDB50729ECB50625900081E0B4DC1EA341
:1010CF00E024FC600F24FE600E24F6600D240D70EA
:0D10DF000C02096C020C060211F6120866E4
:0110EC0022E1
:10096C00C2C79002547403F0900085A3E025E09078
:10097C000253F0900083E0FEA3E0FDEDFF900256E1
:10098C00EEF0A3EFF090000174DCF0A37403F09090
:10099C000253E0900003F0900253E0F9C313FD9072
:1009AC000257E02DFD900256E03400FCC3EF9DEEA3
:1009BC009C4003020A59E4900252F0900251F0EE6E
:1009CC007053EF14601A14602114602814602F14F3
:1009DC0060362405703FE4900251F090023780306D
:1009EC00E4900251F09002388026E4900251F0908D
:1009FC000239801CE4900251F090023A8012E4908B
:100A0C000251F090023B8008E4900251F090023CBD
:100A1C00E0900252F0900251E0FD900254E0FC0490
:100A2C00F074012CF582E43400F583EDF090025261
:100A3C00E0FD900254E0FC04F074012CF582E434E7
:100A4C0000F583EDF00FBF00010E0209A3E92403AA
:080A5C00FD7F03120B3FD2C71E
:010A6400226F
:100C06009002547403F0900085A3E025E09002530F
:100C1600F0900083E0FEA3E0FDEDFF900256EEF0BB
:100C2600A3EFF090000174DCF0A37404F09002537B
:100C3600E0900003F0900253E0F9C313FD900257D1
:100C4600E02DFD900256E03400FCC3EF9DEE9C5073
:100C560061E4900252F0900251F0EE701EEF1460C3
:100C66000D047017E4900251F09002428008E4905F
:100C76000251F090023DE0900252F0900251E0FDE8
:100C8600900254E0FC04F074012CF582E43400F583
:100C960083EDF0900252E0FD900254E0FC04F07403
:100CA600012CF582E43400F583EDF00FBF00010E50
:0B0CB6008083E92403FD7F04020B3F54
:1011F600C2C7900084E024FD600814601014601AD1
:10120600802612130D9002417401F0801B90FEFDA2
:10121600E4F0C2A8900241F0800E900086E09002B1
:101226003CF0121465120F027D087F06120B3F7FF9
:09123600057E00121396D2C722B6
:10086600C2C79002557407F0900087E0900253F0DB
:10087600900083E0FEA3E0FDEDFF900256EEF0A3AC
:10088600EFF090020BEEF0A3EFF0900253E0C313EB
:10089600FF900257E02FFF900256E03400FE9002D0
:1008A6000BE0FCA3E0FDC39FEC9E400302095F90B2
:1008B6000255E02481F582E43400F583E09002518C
:1008C600F0900255E02482F582E43400F583E0904E
:1008D6000252F0EC7068ED14601D14603014603B39
:1008E60014604614604D24057054900252E0900244
:1008F60037F0120D5B8047900252E0FF900238F00D
:10090600BF010590FEFDE4F012130D8031900252F6
:10091600E0FF900239F01214B18023900252E0FFFA
:1009260090023AF01214F48015900252E090023BC5
:10093600F0800B900252E090023CF0121465900297
:1009460055E02402F090020CE004F06003020890E7
:1009560090020BE004F00208907D087F10120B3F16
:05096600121007D2C7CA
:01096B002269
:050B3F0090020DEDF035
:100B4400EF24FC600F24FE604F24F66064240D60E3
:100B540003020BF37B017A00790190020DE0FD1290
:100B6400002690020EEEF0A3EFF090020EE0FEA33A
:100B7400E0FD90020DE0FC2402F582E43400F583EC
:100B8400EDF0EEFF74012CF582E43400F583EFF010
:100B940090020DE02402805378017C007D017B01EA
:100BA4007A0079817E007F081204D390020DE080E0
:100BB4003A78017C007D017B017A0079817E007F97
:100BC400061204D37B017A0079017D061200269077
:100BD400020EEEF0A3EFF090020EE0FEA3E0900010
:100BE40008F0EE900007F090020DE0900101F0D2C1
:100BF400847F027E001213964384027F017E0002EA
:020C0400139645
:05002600900210EDF056
:10002B0074FFA3F0A3F01204F9FF900211E0F0A308
:10003B00E06FF0E4FD900211E0FEA3E0FF30E01969
:10004B00EEC313FEEF13FFEE64A0FEEF6401FF900F
:10005B000211EEF0A3EFF0800B900211E0C313F04E
:10006B00A3E013F00DEDB408CC740129F9E43AFACE
:0E007B00900210E014F070AEA3E0FEA3E0FFD0
:010089002254
:03000000020DEB03
:0C0DEB00787FE4F6D8FD758121020E32FD
:10040300E709F608DFFA8046E709F208DFFA803EDB
:1004130088828C83E709F0A3DFFA8032E309F608C8
:10042300DFFA8078E309F208DFFA807088828C8330
:10043300E309F0A3DFFA806489828A83E0A3F608E4
:10044300DFFA805889828A83E0A3F208DFFA804CBE
:1004530080D280FA80C680D4806980F28033801095
:1004630080A680EA809A80A880DA80E280CA8033FE
:1004730089828A83ECFAE493A3C8C582C8CCC58376
:10048300CCF0A3C8C582C8CCC583CCDFE9DEE78046
:100493000D89828A83E493A3F608DFF9ECFAA9F0C5
:1004A300EDFB2289828A83ECFAE0A3C8C582C8CC1B
:1004B300C583CCF0A3C8C582C8CCC583CCDFEADE34
:1004C300E880DB89828A83E493A3F208DFF980CC96
:1004D30088F0EF60010E4E60C388F0ED2402B4048F
:1004E3000050B9F582EB2402B4040050AF23234536
:0604F30082239004537304
:1004F900BB010689828A83E0225002E722BBFE0201
:09050900E32289828A83E4932233
:10051200BC000BBE0029EF8DF084FFADF022E4CCCD
:10052200F875F008EF2FFFEE33FEEC33FCEE9DEC96
:10053200984005FCEE9DFE0FD5F0E9E4CEFD22EDDC
:10054200F8F5F0EE8420D21CFEADF075F008EF2F26
:10055200FFED33FD4007985006D5F0F222C398FD17
:050562000FD5F0EA22B4
:10056700BB0110E58229F582E5833AF583E0F5F0D2
:10057700A3E0225009E92582F886F008E622BBFEAF
:100587000AE92582F8E2F5F008E222E5832AF583F5
:08059700E993F5F0A3E99322BA
:10009E00E508240EF582E43402F583E0050822908B
:1000AE00020B30070390020EE475F0011205DE021A
:1000BE0004F92000E97F2ED2008018EF540F24900F
:1000CE00D43440D4FF30040BEF24BFB41A005003D5
:1000DE002461FFE50960021509050CE50C700205A7
:1000EE000B30070E90020BE475F0011205DEEF02E5
:1000FE0005CC02152B7403D2078003E4C207F50862
:10010E0090020B1205F5E4F509F50BF50CE5096007
:10011E00077F201200E180F5750AFFC201C200C2FE
:10012E0002C203C205C206C2081200ADFF700D3036
:10013E0007057F001200F2AF0CAE0B22B4255FC292
:10014E00D5C2041200ADFF24D0B40A00501A75F0C7
:10015E000A780930D50508B6FF0106C6A426F62092
:10016E00D5047002D20380D924CFB41A00EF500404
:10017E00C2E5D2040202F3D20180C6D20080C0D200
:10018E000280BCD2D580BAD20580B47F201200E1A5
:10019E002002077401B5090040F112009EFF120003
:1001AE00E102011BD208D206809512009EFB1200BE
:1001BE009EFA12009EF94A4B700679C47A037BFFB1
:1001CE0020022EE509602A7E008E827583001205BC
:1001DE009F60060EEE650A70F0C2D5EBC0E0EAC075
:1001EE00E0E9C0E0EE12033AD0E0F9D0E0FAD0E058
:1001FE00FB1204F9FF60AAEBC0E0EAC0E0E9C0E040
:10020E001200E1D0E02401F9D0E03400FAD0E0FB96
:10021E00E50A0460DCD50AD980877BFF7A0379363C
:10022E00D202809C791080027908C206C20880082A
:10023E00D2D5790A8004790AC2D5E50A047002F58E
:10024E000AE4FAFDFEFF12009EFC7B082001131249
:10025E00009EFD7B1030000A12009EFE12009EFFD3
:10026E007B20EC3382D592D55013C3E43000069F29
:10027E00FFE49EFEE42001039DFDE49CFCE4CBF82C
:10028E00C201EC700CCFCECDCCE824F8F870F38020
:10029E0017C3EF33FFEE33FEED33FDEC33FCEB33E0
:1002AE00FB994002FB0FD8E9EB300105F8D0E0C412
:1002BE0048B201C0E00AEC4D4E4F78207B0070C270
:1002CE00EAB50A0040BCC0E012033CD0F0D0E020FA
:1002DE000104C4C0E0C4B201C0F01200CAD0F0D50F
:1002EE00F0EB02011B1205FE01B8530232580189D0
:1002FE004C01854202364F023E44023E49019E4366
:08030E000244550228460228B2
:100316004502284703E450018D2D01912E01B42B8F
:1003260001952301B22003CD2A014D48000001ACFE
:100336003F3F3F00790AA2D5200314300509B910C2
:10034600020404B9080104A2D520060250010420C3
:1003560002689202B509005034C0E07F20300319CC
:100366007F30A20272067205500F120393C202C2B8
:1003760006C205C2087F30800F300503E9C0E012CF
:1003860000E1300503D0E0F9D0E0B509CC3005171F
:100396007F30B9100C1200E17F583004077F788057
:1003A60003B908031200E13002057F2D0200E17F48
:1003B600202008F87F2B2006F322920280CF286E99
:1003C600756C6C2900D20112009E3001F8C20178CA
:1003D6000930D50108F602014D2D50434958120047
:1003E6009E2403B405004001E49003DF931200D27B
:0D03F600743A1200D2D203750904020232DB
:100DF700020CC1E493A3F8E493A34003F68001F245
:100E070008DFF48029E493A3F85407240CC8C333FC
:100E1700C4540F4420C8834004F456800146F6DFCB
:100E2700E4800B0102040810204080900624E47E31
:100E3700019360BCA3FF543F30E509541FFEE493C0
:100E4700A360010ECF54C025E060A840B8E493A387
:100E5700FAE493A3F8E493A3C8C582C8CAC583CAB2
:100E6700F0A3C8C582C8CAC583CADFE9DEE780BE6A
:0107440000B4
:10059F00BB010CE58229F582E5833AF583E0225011
:1005AF0006E92582F8E622BBFE06E92582F8E2225B
:0D05BF00E58229F582E5833AF583E4932275
:1005CC00BB010689828A83F0225002F722BBFE010E
:0205DC00F32208
:1005DE00F8E0FBA3A3E0F925F0F0E58215827002A6
:0705EE001583E0FA38F0224A
:0905F500EBF0A3EAF0A3E9F02207
:1005FE00D083D082F8E4937012740193700DA3A38C
:10060E0093F8740193F5828883E47374029368609F
:06061E00EFA3A3A380DF9F
:00000001FF
