:1013DA00D3EF9400EE9400401600000075080B75D8
:0F13EA0009BED509FDD508FAEF1F70E41E80E19A
:0113F90022D1
:10152200D3EF9400EE9400400A000000EF1F70F029
:041532001E80ED2208
:10148F0043BC807F0A7E001213DA53DEFC43DE0C6E
:0A149F0053BCDF53A8DF43DE202218
:1013B900E4FDFC53BCF0EF444042BCE5BC30E5FB26
:1013C90053BCDF53BCBFAFBDEFADBEFCEDAE04FFF8
:0113D90022F1
:0D000E00E4F5C7F5C5F5C675C380F5C4223D
:1014390075C78075F50C75C5038FC4EEF5C375C600
:0E1449005A75C6A57F0A7E001213DA02000E45
:1013970075C78075F50C75C5028FC4EEF5C3AF052B
:1013A7008FC275C65A75C6A57F0A7E001213DA0268
:0213B700000E26
:1013FA0075C78075F50C75C5018FC4EEF5C375C642
:10140A005A75C6A57F0A7E001213DAAFC202000E11
:10141A00759418E4F593F5927591F875960EF5950D
:0F142A0075B2C2F5B175B48EF5B3F5CAF5C92226
:101349003D3D3D3D2053573030332D32303235311C
:1013590032323920636F6465207374617274203D81
:071369003D3D3D200D0A008F
:1011CF0043BA8012141A1214C312148F12150C1270
:1011DF0014DC1215361212591212F31200061215E0
:1011EF0064121549D2AF1210CD900237E07005127C
:1011FF000F8380F57BFF7A1379491201091213705F
:0B120F00120F83120CE4120FF980F2A2
:1012590043BA8090FEB6E0F090FEEDE4F090FEEA2D
:101269007470F0A3F090FEED7411F090FEF2740426
:10127900F0A37451F090FEF0E4F0A37431F090FE05
:0D128900B5E04450F090FEE0E04401F0229A
:05000600D288D2A822FF
:10153600438E805389F0758ACD758CD4C28DD28C3A
:03154600D2A92205
:0A156400538EBF53890F43891022F4
:1015490053D1FDE4F5D575D4DC43D10843AF20224E
:1014C30053A23F759850438E01438E0475D7E87538
:0914D300D6FF438E1075A810220B
:10150C0075841043844043D12075D3E875D2FF43D2
:06151C00D18043AF102254
:04077C004101060031
:1014DC00E4900000F0900081F0900101F0F0A3F096
:0914EC00A3F0A3F0A3F0C28422D6
:03009300020E8CCE
:100E8C00C0E0C083C082C0D075D000C007E58430FC
:100E9C00E12A5384FD900101E0601AA3E0FF04F005
:100EAC0074012FF582E43400F583E0F5859001019F
:100EBC00E014F08007900102E4F0C284E58430E095
:100ECC00335384FE900000E07021900105E0D39430
:100EDC00804002E4F0900105E02481F582E43400C6
:100EEC00F583E585F0900105E004F0900103E4F052
:0F0EFC00A37405F0D007D0D0D082D083D0E032DD
:03000B0002121AC4
:10121A00C0E0C083C082C0D0900103E07002A3E0A6
:10122A006024900104E024FFF0900103E034FFF011
:10123A00E07002A3E0700F900105E0D3940040062D
:0F124A009000007401F0D0D0D082D083D0E03279
:030023000214576D
:10145700C0E0C083C082309907C299900106E4F0CA
:0C146700309802C298D082D083D0E032CE
:0B1559008F99900106E070FA04F02268
:1010CD007F107E001213FAEF645860449002417451
:1010DD0007F0E4A3F0A37403F0A37432F0A37450EB
:1010ED00F0E490020AF090020AE0FFC39405501557
:1010FD00C2C7EF04900240F0120F0BD2C790020A44
:10110D00E004F080E19002407401F01214A9800314
:0C111D0012117F90023B7478F0021296D1
:1014A900E4FFFE121439900240E0FDE4FFFE12133E
:0A14B900977D587F107E0002139704
:10117F00E4FFFE1213FA900240EFF0E075F002A4C4
:10118F0090020DF0A3E4F090020CF090020DE0FE3F
:10119F00A3E0FF1213FA90020CE0246CF582E43402
:1011AF0002F583EFF090020EE004F0700690020D4E
:0F11BF00E004F090020CE004F0E0C3940540CC93
:0111CE0022FE
:100F0B00900241E090026CF0900242E090026DF092
:100F1B00900243E090026EF0900244E090026FF07A
:100F2B00900245E0900270F0900240E075F002A450
:100F3B007F00FE90020DF0A3EFF0121439E4900243
:100F4B000CF090020CE0FDC39405502BA3E0FEA324
:100F5B00E0FF746C2DF582E43402F583E0FD12138F
:100F6B009790020EE004F0700690020DE004F090F2
:070F7B00020CE004F080CB42
:010F8200224C
:1012960090026CE0900241F090026DE0900242F004
:1012A60090026EE0900243F012147390026FE09089
:0F12B6000244F01214F5900270E0900245F0220D
:1007800060FC010E03D503FA04200446046D0495B1
:1007900004BE04E70510053A0565059005BB05E7AD
:1007A0000613063F066C069906C606F30720074D9A
:1007B000077A07A707D40800082D0859088508B14B
:1007C00008DC09070931095B098409AD09D609FD6F
:1007D0000A240A4B0A710A960ABB0ADE0B020B2492
:1007E0000B460B670B870BA70BC60BE40C020C1E0A
:1007F0000C3A0C560C700C8A0CA40CBC0CD40CECEF
:100800000D020D190D2E0D430D570D6B0D7E0D9024
:100810000DA20DB40DC50DD50DE50DF50E040E128E
:100820000E200E2E0E3B0E480E550E610E6D0E78EC
:100830000E830E8D0E970EA10EAB0EB40EBD0EC61E
:100840000ECF0ED70EDF0EE70EEF0EF60EFD0F04E5
:100850000F0B0F110F170F1D0F230F290F2F0F3520
:100860000F3A0F3F0F440F490F4E0F530F580F5CB5
:100870000F600F650F690F6D0F710F740F780F7C8C
:0E0E010090020EEBF0A3EAF0A3E9F0A3EDF0EF
:100E0F00E4900215F0A3F0900214F0900211E01498
:100E1F00FF900214E0FEC39F505A90020EE0FBA316
:100E2F00E0FAA3E0F975F002EEA4F58285F08312E3
:100E3F000567FF900212E0FCA3E0FDC39FEC95F065
:100E4F00402AA3E02401FFE433FEEF25E0FFEE3359
:100E5F00FE8F828E83120567FFC3ED9FEC95F050D6
:100E6F000B900214E0FFA3E4F0A3EFF0900214E064
:0C0E7F0004F08097900215E0FEA3E0FF55
:010E8B002244
:05106C0090020AEFF004
:10107100E490020CF0A3F090020BF090020AE0FF62
:101081001213B990020DE02FF090020CE03EF090A7
:10109100020BE004F0E0C3940A40E090020CE0FE91
:1010A100A3E0FF7C007D0A12051290020CEEF0A372
:1010B100EFF07B017A01790E90020CE0FFA3E09042
:0C10C1000212CFF0A3EFF07D7E020E01C2
:0408800041023200FF
:1012F300E4900238F090010BF0C2B6D2C7900237E7
:10130300F0900235F0900234F0900233F090023600
:0C131300F090023974F1F0A37404F02291
:030003000212C521
:1012C500C0E0C083C082C0D075D000C0069002398E
:1012D500E0FEA3E0F58BEEF58D9002387401F0D2B7
:0E12E5008ED2ABD006D0D0D082D083D0E032F3
:03001B00021129A6
:10112900C0E0C083C082C0D075D000C0079002382B
:10113900E06401702CF0900233E0FFC374019F2436
:10114900FF92C1A3E0FFC374019F24FF92C2A3E0F1
:10115900FFC374019F24FF92C3758BF7758DFF80C0
:101169000AD2C3D2C2D2C1C28EC2ABD007D0D0D0AC
:0611790082D083D0E032B9
:1014F500900244E075F04AA42490FEE5F034E290B1
:071505000239F0A3CEF02231
:10147300900243E075F0B8A4FFAEF090FEFBEEF0EF
:0C148300A3EFF090FEF9EEF0A3EFF022D2
:100FF90090010BE06401706A7F0412106C90010784
:10100900EFF0C3942D4004D2B68002C2B690023BE1
:10101900E0FF900107E0FEC39F400B90023F74017F
:10102900F0E490023EF090023BE024FBFFEEC39F08
:10103900502BE490023FF0900245E0FF900107E059
:10104900C39F400690023E7401F0EF24FEFF900119
:1010590007E0C39F5007E490023EF0D2C7E4900135
:031069000BF02267
:09008A001214A912117F02129652
:1013700090023CE0FF900232E06F601AEFF09002C2
:1013800042E0B4010A900232E070047F0180027FE3
:061390000090023DEFF0A9
:011396002234
:100CE400900237E06401706512131F900241E054D2
:100CF400015F60047F0180027F00900233EFF012F5
:100D0400131F900241E054025F60047F0180027F60
:100D140000900234EFF012131F900241E054045F7C
:100D240060047F0180027F00900235EFF090024260
:100D3400E0600D90023CE064016005A3E0B40104AE
:100D44007F0180027F00900236EFF08011E4900270
:100D540036F0900235F0900234F0900233F09002B5
:100D640036E0B401047F8080027F0090FEFDEFF046
:010D7400225C
:10131F0090023BE0FF900107E0C39F40037F002254
:10132F00900244E07002FF22900242E0B401089064
:0A133F00023CE07002FF227F012251
:1008840041026100410262004202630000420265CB
:10089400000042026700004102690142026A00004E
:03009B0002062436
:0F062400C0E0C083C082C0D075D000C006C00740
:10063300209319900261E004F0A3E4F0900261E0DA
:10064300B4051FE4F090023C04F08016900262E0CF
:1006530004F0900261E4F0A3E0B40506E4F0900234
:100663003CF090010BE07025900264E004F070060A
:10067300900263E004F0900263E07004A3E064641A
:10068300700B900263F0A3F090010B04F090023E14
:10069300E0B40133900266E004F07006900265E076
:1006A30004F0900265E07004A3E0643270199002D4
:1006B30069E0FFC374019FF07004C2C78002D2C710
:1006C300900265E4F0A3F090023FE064017064904F
:1006D3000268E004F07006900267E004F09002679D
:1006E300E07004A3E064C87007900267F0A304F00D
:1006F300900267E0FEA3E0FFC39414EE9400400968
:10070300D3EF9427EE94004024C3EF943CEE94007F
:100713004009D3EF944FEE94004012C3EF9464EE7C
:100723009400400DD3EF9477EE94005004C2C78039
:1007330002D2C790023DE0B4012B90026BE004F0BB
:10074300700690026AE004F090026AE0B4051DA30B
:10075300E0B4DC1890026AE4F0A3F0900236F09063
:0C076300023DF0800790026AE4F0A3F071
:0D076F00D007D006D0D0D082D083D0E032A9
:100F8300900000E06401706D7B017A00798190012B
:100F930005E024FEFD120026AD07AC06900105E036
:100FA300FB247FF582E43400F583E0FE74802BF5A7
:100FB30082E43400F583E0FBEBFFB5052FECB506C7
:100FC3002B900081E0B4DC24A3E024FC601124FE18
:100FD300601224F66013240D70121208A5800D12FE
:100FE3000AA88008120C3980031209A8E4900000B3
:050FF300F0900105F083
:010FF80022D6
:1008A5009002527403F0900083E0FEA3E0FDEDFF9B
:1008B500900253EEF0A3EFF0900085E0FEA3E0FD7B
:1008C500EDFF900255EEF0A3EFF090000174DCF01F
:1008D500A37403F0EF25E0A3F0900253E0FEA3E03C
:1008E500FF900255E0FCA3E0FD900254E02DFD9041
:1008F5000253E03CFCC3EF9DEE9C4003020999E4E2
:10090500900251F0900250F0EE7053EF14601A14FB
:10091500602114602814602F1460362405703FE4AC
:10092500900250F09002418030E4900250F0900225
:10093500428026E4900250F0900243801CE490022D
:1009450050F09002448012E4900250F090024580ED
:1009550008E4900250F0900240E0900251F09002BD
:1009650050E0FD900252E0FC04F074012CF582E4A5
:100975003400F583EDF0900251E0FDA3E0FC04F0B6
:1009850074012CF582E43400F583EDF00FBF00010E
:100995000E0208E6900255A3E025E02403FD7F033F
:0309A500020B72D0
:100AA8009002527403F0900083E0FEA3E0FDEDFF96
:100AB800900257EEF0A3EFF0900085E0FEA3E0FD72
:100AC800EDFF900259EEF0A3EFF090000174DCF016
:100AD800A37404F0EF25E0A3F0900257E0FEA3E032
:100AE800FF900259E0FCA3E0FD900258E02DFD9034
:100AF8000257E03CFCC3EF9DEE9C505FE49002512E
:100B0800F0900250F0EE701EEF14600D047017E4C0
:100B1800900250F090023E8008E4900250F090025B
:100B28003CE0900251F0900250E0FD900252E0FC4F
:100B380004F074012CF582E43400F583EDF09002A2
:100B480051E0FDA3E0FC04F074012CF582E43400CC
:100B5800F583EDF00FBF00010E8086900259A3E0E7
:0A0B680025E02403FD7F04020B7258
:100C3900C2C7900083E0FEA3E0FDEDFF90025FEEE6
:100C4900F0A3EFF0900085E0900250F0900086E06C
:100C5900900251F090025FE0FEA3E0FFEE706FEFAB
:100C6900B407005069900C75F8282873020C8A02A1
:100C79000C94020C9E020CAB020CB8020CC2020CC2
:100C8900CF900251E0900241F08043900251E090F0
:100C99000242F08039900251E0900243F01214733D
:100CA900802C900251E0900244F01214F5801F90BC
:100CB9000251E0900245F08015900086E0900240D4
:100CC900F012008A8008900086E0900237F07D08D3
:0B0CD9007F06120B72120F0BD2C72215
:1009A800C2C79002527407F0900083E0FEA3E0FDF6
:1009B800EDFF90025BEEF0A3EFF0900086E0FEA35F
:1009C800E0FDEDFF90025DEEF0A3EFF0900252E043
:1009D800FF90020AE4F0A3EFF0900252E0FFFD90CE
:1009E800025EE02DFD90025DE03400FC90020AE01A
:1009F800FAA3E0FBC39DEA9C4003020A9B74812F83
:100A0800F582E43400F583E0900250F0900252E061
:100A18002482F582E43400F583E0900251F0EA7014
:100A280057EB14601A14602114602B14603514609D
:100A38003C24057043900251E0900241F0803990C7
:100A48000251E0900242F0802F900251E090024360
:100A5800F01214738022900251E0900244F01214B4
:100A6800F58015900251E0900245F0800B900251FC
:100A7800E0900240F012008A900252E02402F090C6
:100A8800020BE004F060030209E190020AE004F0BE
:0F0A98000209E17D087F10120B72120F0BD2C7FB
:010AA700222C
:050B720090020CEDF003
:100B7700EF24FC600F24FE604F24F66064240D60B0
:100B870003020C267B017A00790190020CE0FD122A
:100B9700002690020DEEF0A3EFF090020DE0FEA309
:100BA700E0FD90020CE0FC2402F582E43400F583BA
:100BB700EDF0EEFF74012CF582E43400F583EFF0DD
:100BC70090020CE02402805378017C007D017B01B8
:100BD7007A0079817E007F081204D390020CE080AE
:100BE7003A78017C007D017B017A0079817E007F64
:100BF700061204D37B017A0079017D061200269044
:100C0700020DEEF0A3EFF090020DE0FEA3E09000DE
:100C170008F0EE900007F090020CE0900101F0D28E
:100C2700847F027E001213DA4384027F017E000272
:020C370013DACE
:0500260090020FEDF057
:10002B0074FFA3F0A3F01204F9FF900210E0F0A309
:10003B00E06FF0E4FD900210E0FEA3E0FF30E0196A
:10004B00EEC313FEEF13FFEE64A0FEEF6401FF900F
:10005B000210EEF0A3EFF0800B900210E0C313F050
:10006B00A3E013F00DEDB408CC740129F9E43AFACE
:0E007B0090020FE014F070AEA3E0FEA3E0FFD1
:010089002254
:03000000020D7579
:0C0D7500787FE4F6D8FD758121020DBCEA
:10040300E709F608DFFA8046E709F208DFFA803EDB
:1004130088828C83E709F0A3DFFA8032E309F608C8
:10042300DFFA8078E309F208DFFA807088828C8330
:10043300E309F0A3DFFA806489828A83E0A3F608E4
:10044300DFFA805889828A83E0A3F208DFFA804CBE
:1004530080D280FA80C680D4806980F28033801095
:1004630080A680EA809A80A880DA80E280CA8033FE
:1004730089828A83ECFAE493A3C8C582C8CCC58376
:10048300CCF0A3C8C582C8CCC583CCDFE9DEE78046
:100493000D89828A83E493A3F608DFF9ECFAA9F0C5
:1004A300EDFB2289828A83ECFAE0A3C8C582C8CC1B
:1004B300C583CCF0A3C8C582C8CCC583CCDFEADE34
:1004C300E880DB89828A83E493A3F208DFF980CC96
:1004D30088F0EF60010E4E60C388F0ED2402B4048F
:1004E3000050B9F582EB2402B4040050AF23234536
:0604F30082239004537304
:1004F900BB010689828A83E0225002E722BBFE0201
:09050900E32289828A83E4932233
:10051200BC000BBE0029EF8DF084FFADF022E4CCCD
:10052200F875F008EF2FFFEE33FEEC33FCEE9DEC96
:10053200984005FCEE9DFE0FD5F0E9E4CEFD22EDDC
:10054200F8F5F0EE8420D21CFEADF075F008EF2F26
:10055200FFED33FD4007985006D5F0F222C398FD17
:050562000FD5F0EA22B4
:10056700BB0110E58229F582E5833AF583E0F5F0D2
:10057700A3E0225009E92582F886F008E622BBFEAF
:100587000AE92582F8E2F5F008E222E5832AF583F5
:08059700E993F5F0A3E99322BA
:10009E00E508240DF582E43402F583E0050822908C
:1000AE00020A30070390020DE475F0011205DE021C
:1000BE0004F92000E97F2ED2008018EF540F24900F
:1000CE00D43440D4FF30040BEF24BFB41A005003D5
:1000DE002461FFE50960021509050CE50C700205A7
:1000EE000B30070E90020AE475F0011205DEEF02E6
:1000FE0005CC0215597403D2078003E4C207F50834
:10010E0090020A1205F5E4F509F50BF50CE5096008
:10011E00077F201200E180F5750AFFC201C200C2FE
:10012E0002C203C205C206C2081200ADFF700D3036
:10013E0007057F001200F2AF0CAE0B22B4255FC292
:10014E00D5C2041200ADFF24D0B40A00501A75F0C7
:10015E000A780930D50508B6FF0106C6A426F62092
:10016E00D5047002D20380D924CFB41A00EF500404
:10017E00C2E5D2040202F3D20180C6D20080C0D200
:10018E000280BCD2D580BAD20580B47F201200E1A5
:10019E002002077401B5090040F112009EFF120003
:1001AE00E102011BD208D206809512009EFB1200BE
:1001BE009EFA12009EF94A4B700679C47A037BFFB1
:1001CE0020022EE509602A7E008E827583001205BC
:1001DE009F60060EEE650A70F0C2D5EBC0E0EAC075
:1001EE00E0E9C0E0EE12033AD0E0F9D0E0FAD0E058
:1001FE00FB1204F9FF60AAEBC0E0EAC0E0E9C0E040
:10020E001200E1D0E02401F9D0E03400FAD0E0FB96
:10021E00E50A0460DCD50AD980877BFF7A0379363C
:10022E00D202809C791080027908C206C20880082A
:10023E00D2D5790A8004790AC2D5E50A047002F58E
:10024E000AE4FAFDFEFF12009EFC7B082001131249
:10025E00009EFD7B1030000A12009EFE12009EFFD3
:10026E007B20EC3382D592D55013C3E43000069F29
:10027E00FFE49EFEE42001039DFDE49CFCE4CBF82C
:10028E00C201EC700CCFCECDCCE824F8F870F38020
:10029E0017C3EF33FFEE33FEED33FDEC33FCEB33E0
:1002AE00FB994002FB0FD8E9EB300105F8D0E0C412
:1002BE0048B201C0E00AEC4D4E4F78207B0070C270
:1002CE00EAB50A0040BCC0E012033CD0F0D0E020FA
:1002DE000104C4C0E0C4B201C0F01200CAD0F0D50F
:1002EE00F0EB02011B1205FE01B8530232580189D0
:1002FE004C01854202364F023E44023E49019E4366
:08030E000244550228460228B2
:100316004502284703E450018D2D01912E01B42B8F
:1003260001952301B22003CD2A014D48000001ACFE
:100336003F3F3F00790AA2D5200314300509B910C2
:10034600020404B9080104A2D520060250010420C3
:1003560002689202B509005034C0E07F20300319CC
:100366007F30A20272067205500F120393C202C2B8
:1003760006C205C2087F30800F300503E9C0E012CF
:1003860000E1300503D0E0F9D0E0B509CC3005171F
:100396007F30B9100C1200E17F583004077F788057
:1003A60003B908031200E13002057F2D0200E17F48
:1003B600202008F87F2B2006F322920280CF286E99
:1003C600756C6C2900D20112009E3001F8C20178CA
:1003D6000930D50108F602014D2D50434958120047
:1003E6009E2403B405004001E49003DF931200D27B
:0D03F600743A1200D2D203750904020232DB
:100D81000211CFE493A3F8E493A34003F68001F2A8
:100D910008DFF48029E493A3F85407240CC8C33373
:100DA100C4540F4420C8834004F456800146F6DF42
:100DB100E4800B010204081020408090077CE47E4F
:100DC100019360BCA3FF543F30E509541FFEE49337
:100DD100A360010ECF54C025E060A840B8E493A3FE
:100DE100FAE493A3F8E493A3C8C582C8CAC583CA29
:100DF100F0A3C8C582C8CAC583CADFE9DEE780BEE1
:0108A4000053
:10059F00BB010CE58229F582E5833AF583E0225011
:1005AF0006E92582F8E622BBFE06E92582F8E2225B
:0D05BF00E58229F582E5833AF583E4932275
:1005CC00BB010689828A83F0225002F722BBFE010E
:0205DC00F32208
:1005DE00F8E0FBA3A3E0F925F0F0E58215827002A6
:0705EE001583E0FA38F0224A
:0905F500EBF0A3EAF0A3E9F02207
:1005FE00D083D082F8E4937012740193700DA3A38C
:10060E0093F8740193F5828883E47374029368609F
:06061E00EFA3A3A380DF9F
:00000001FF
